:020000040800F2
:20000000A0480020150600081D0600081F06000821060008230600082506000800000000CA
:200020000000000000000000000000002706000829060008000000002B0600082D060008E0
:200040002F0600082F0600082F0600082F0600082F0600082F0600082F0600082F060008B8
:200060002F0600082F0600082F0600082F0600082F0600082F0600082F0600082F06000898
:200080002F0600082F0600082F0600082F0600082F0600082F0600082F0600082F06000878
:2000A0002F0600082F0600082F0600082F0600082F0600082F0600082F0600082F06000858
:2000C0002F0600082F0600082F0600082F0600082F060008BB0400082F0600082F060008AE
:2000E0002F0600082F0600082F0600082F0600082F0600082F0600082F0600082F06000818
:200100002F0600082F0600082F0600082F0600082F0600082F0600082F0600082F060008F7
:200120002F0600082F0600082F0600082F0600082F0600082F0600082F0600082F060008D7
:200140002F0600082F0600082F0600082F0600082F0600082F0600082F0600082F060008B7
:200160002F0600082F0600082F0600082F0600082F0600082F0600082F0600082F06000897
:200180002F0600082F06000800F002F800F03CF80AA090E8000C82448344AAF10107DA455A
:2001A00001D100F031F8AFF2090EBAE80F0013F0010F18BFFB1A43F001031847C81200007C
:2001C000E8120000103A24BF78C878C1FAD8520724BF30C830C144BF04680C6070470000F6
:2001E0000023002400250026103A28BF78C1FBD8520728BF30C148BF0B6070471FB501F011
:200200003CF91FBD10B510BD01F009F91146FFF7F5FF00F09CF801F027F903B4FFF7F2FFD4
:2002200003BC00F020FA000048F20000C0F600004068004770B54E4D0E46044632B101F0E4
:2002400041F803E001CC90FAA0F02860761EF9D2286890FAA0F0C04370BD10B5464C454AF4
:2002600094E80B0082E80B00444A904207D1444889080122FFF7DEFFA168814201D000207A
:2002800010BD3C4810BD2DE9F04F0446ADF20C4DF32001F010F80221102000F00EFE09281D
:2002A00051D10221182000F008FE09284BD10221202000F002FE092845D10221282000F089
:2002C000FCFD09283FD104F2FF34E01704EB905087120024DFF8A8904FF4806BDFF8A4A0E0
:2002E000E84615E009EB84215A46684601F00BF80AEB84265FF00005304658F8251000F022
:20030000B4FE092801D16D1C361DFF2DF4DD641CBC42E7DBFF220C210DF5806001F025F8D1
:200320000221082000F0C9FD174E00250DF580643046216800F099FE092802D1241D6D1CF8
:20034000361D032DF4D30DF20C4DBDE8F08F10B500F01CF800F072FDFFF77FFF10B14068D2
:20036000FFF791FF00F076FDFFF75EFF002010BD0030024030000020004000087F534D55D6
:20038000000004080080000800400008174810B5016841F480510160016841F07F01016012
:2003A00012481430016844F210021143016000F025F8012000F05DF8BDE8104000F083B8A6
:2003C0000B48006870470A4840687047BFF34F8F08480168084A01F4E06111430160BFF3C2
:2003E0004F8FFEE7024880687047000030380240000000200CED00E00400FA057CB5012059
:200400008DF8040000218DF806108DF807100403274D8DF8050069462846009400F00EFA4D
:200420002146284600F086FA4020224C00906946204600F003FA4021204600F07BFA1020BB
:2004400000906946204600F0F9F91021204600F06FFA202000906946204600F0EFF9202127
:20046000204600F065FA7CBD4FF48051104800F05FBA104A00284FF04001104601D000F000
:2004800057BA00F057BA0B4A01284FF01001104601D000F04FBA00F04BBA064A01284FF0AF
:2004A0002001104601D000F045BA00F041BA0000000C024000100240704752480188890611
:2004C00000D5808870471CB501208DF8040000248DF806408DF807408DF8050080030090B5
:2004E0006946494800F0AAF902208DF804008DF806408DF807400002444C009069462046B0
:2005000000F09CF9201500906946204600F096F907220921204600F01AFA07220A21204686
:2005200000F015FA374CA0894DF6F3710840A08100F017F94FF49641B0FBF1F02081A08990
:2005400042F20C010843A0811CBD2DE9F0410F4606462F49A0F51660154688422CD2022F56
:200560002AD8022D28D8274CA0894DF6F3710840A08100F0F6F8B0FBF6F02081208A20F4D0
:2005800040502082022F03D1208A40F400502082A0899DB140F4A050A081A08920F40070EB
:2005A000A081012D03D1A08940F40070A081A08942F20C010843A081BDE8F08120F4A0503A
:2005C000F4E770B5104E04464FF480452946304600F0AEF90B48E1B2818001884906FCD55F
:2005E00029463046BDE8704000F0A4B90548818941F00401818170470248818921F00401C4
:2006000081817047001001400004024000000240A1B801000948804709480047FEE7FEE774
:20062000FEE7FEE7FEE7FEE7FEE7FEE7FEE7FEE704480549054A064B70470000690600082A
:2006400089010008A0000020A0480020A0400020A040002010B5FFF7B4FF012010BD4FF0A5
:20066000FF3070477047FEE77CB50121102000F0E8FA01208DF8040000248DF806408DF885
:2006800007408DF805002020614D00906946284600F0D4F85F4800684FF020010001284654
:2006A00002D500F047F901E000F042F95A48016841F47001016057487438016841F001012E
:2006C000016054496C390C60016841F4802101600168524A114001604E4951487039086073
:2006E0004C486838046000F044F84B494FF00060803908607CBD70B5464C6C3C2068494A2F
:2007000010F00C01484804D0484D042903D0082903D002601BE0056019E03E4970390B6871
:20072000C3F380560B6803F03F0316B1B5FBF3F201E0B2FBF3F20B680968C3F388135A43E4
:20074000C1F30141491C4900B2FBF1F101602168354AC1F30311121D515C0268CA40026083
:2007600070BD31480068400870472F480068800870470CB5002027490190743900900A68BD
:2007800042F480320A600A6802F400320092019A521C0192009A002AF5D00A68920334D5A6
:2007A000012000901B483438026842F0805202601F48026842F44042026016486C38026892
:2007C0000260026842F400420260026842F4A0520260031F174A1A600A6842F080720A6082
:2007E0000A689201FCD5144A40F205611160016821F003010160016841F002010160016876
:20080000C1F381010229FAD10CBD00900CBD0000001002407438024088ED00E0FFFFF6FE03
:20082000103000240024F4000C00002080F0FA0200700040192A4007003C0240F0B5002324
:20084000012403270D6804FA03F21540954242D1D0F800C05E0007FA06F52CEA050CC0F8E1
:2008600000C091F804C0D0F800E00CFA06FC4CEA0E0CC0F800C091F804C0BCF1010F02D017
:20088000BCF1020F1FD1D0F808C02CEA050CC0F808C091F805C0D0F808E00CFA06FC4CEA37
:2008A0000E0CC0F808C0D0F804C02CEA020CC0F804C0426891F806C00CFA03FC1FFA8CFCD3
:2008C00042EA0C024260C268AA43C260CA79C568B2402A43C2605B1C102BB3D3F0BD4FF6E8
:2008E000FF7101600021017141718171C171704708B541F480320092C261C1610099C161D1
:20090000C169C069009008BD0246002012690A4200D001207047006980B27047024600209E
:2009200052690A4200D001207047406980B2704701837047418370470AB101837047418306
:2009400070474161704742694A40426170474B07DB0E9A40C90810B500EB8100016A0F2443
:200960009C40A1430162016A1143016210BD0000F848016841F001010160F64A002108328D
:2009800011600268F44B1A400260031DF34A1A60F04BF34A84331A60F04A103A1B1D1A60CB
:2009A000026822F480220260EA480C300160181D01607047E7490022891C0A7008707047F7
:2009C00002460020510901290CD002290CD0E1497431096802F01F02012393400B4200D0E1
:2009E00001207047DB49F4E7DA497031F1E718B500204FF4A04400903120FFF7E1FF009920
:200A0000491C0091A14201D00028F5D03120FFF7D7FF002800D0012018BDCE490A6822F099
:200A2000F80242EAC00008607047CE4908607047C849002270310A700A70012802D004288C
:200A400001D1052008707047C7490860704741EA82115A0810B5C54B029C03EB0242114328
:200A6000014341EA0460BB49091D086010BDBD4908667047800140EA0170B64984310860E1
:200A80007047B84988667047800140EA0160B14940EA0270883108607047B249086770475E
:200AA000B049C8647047AB4A08321368084323F0EC63184310607047A64A08321368084391
:200AC00023F07843184310607047A24A0832116821F003010143116070479E480830006820
:200AE00000F00C0070479B4A0832116821F0F001014311607047974A0832116821F4E05163
:200B0000014311607047934908310A6822F4604242EAC0000860704770B58E4A083211686F
:200B2000934C11F00C0104D0924E042903D0082903D004601BE0066019E08649091D0B68EA
:200B4000C3F380550B6803F03F0315B1B6FBF3F301E0B4FBF3F30C680968C4F388146343B1
:200B6000C1F30141491C4900B3FBF1F1016011680F2303EA1111804B5C5C0168E140416078
:200B80001468072505EA94241C5D21FA04F48460126805EA52329A5CD140C16070BDC0F3A1
:200BA0000121032908D16B4A0832116821F4F8137249014019431160664970310A68C0F348
:200BC0000B0002430A607047674944390860704765494039086070476249C1F85C0170479A
:200BE0005C4A8C321168401E21F01F0101431160704758498C310A686FF0FF0322F4F8528C
:200C000003EB0020104308607047524A8C32116821F440110143116070474E4A8C321168E0
:200C200021F440010143116070474A4A8C32116821F440310143116070475149C1F8E00101
:200C40007047444A30320029116801D0014300E08143116070473F4A34320029116801D008
:200C6000014300E08143116070473A4A38320029116801D0014300E0814311607047354A74
:200C800040320029116801D0014300E0814311607047304A44320029116801D0014300E0D8
:200CA0008143116070472B4A10320029116801D0014300E0814311607047264A143200292F
:200CC000116801D0014300E0814311607047214A18320029116801D0014300E08143116039
:200CE00070471C4A20320029116801D0014300E0814311607047174A24320029116801D0D8
:200D0000014300E0814311607047124A50320029116801D0014300E08143116070470D4A0B
:200D200054320029116801D0014300E0814311607047084A58320029116801D0014300E037
:200D4000814311607047034A60320029116819D0014318E000380240FFFFF6EA1030002445
:200D60000030002000004742800E47420000FFFF0024F40080F0FA0220000020FFFCFF0FB8
:200D800000104742814311607047134A0029116801D0014300E08143116070470E4A573A05
:200DA0000029117801D0014300E081431170704709481030016841F0807101607047014615
:200DC000054A0020583A12680A4200D001207047014956390870704764380240F949087004
:200DE0007047F8490028086802D040F4807001E020F4807008607047F2490028086802D0C4
:200E000040F4007001E020F4007008607047ED490028086802D040F4806001E020F4806021
:200E200008607047E748016841F4006101607047E448016841F4805101607047E148103031
:200E40000068002805DADF48DF49001D0160DF4901607047DB481030016841F00041016077
:200E60007047D84909200C310A68D20301D5012070470A68D20601D5062070470A68D205F9
:200E800001D5022070470A6812F0EF0F01D00720704709688907FBD50820704708B50920EC
:200EA0008DF80000FFF7DDFF8DF800009DF800000128F7D09DF8000008BD70B506460025E1
:200EC00029B1012928D0022929D04FF44075FFF7E5FF09281FD1BB4C1034206820F4407068
:200EE0002060206828432060206820F0F8002060206846F0020108432060206840F48030F7
:200F00002060FFF7CBFF216821F002012160216821F0F801216070BD4FF48075D7E74FF4F9
:200F20000075D4E730B504460025FFF7B7FF2CB1012C1DD0022C1ED04FF44075092816D15E
:200F4000A04C1034206820F440702060206828432060206840F004002060206840F480307A
:200F60002060FFF79BFF216821F00401216030BD4FF48075E2E74FF40075DFE730B50446A6
:200F80000025FFF78BFF2CB1012C1DD0022C1ED04FF44075092816D18A4C1034206820F4D3
:200FA00040702060206828432060206840F004002060206840F480302060FFF76FFF216879
:200FC00021F00401216030BD4FF48075E2E74FF40075DFE730B504460025FFF75FFF2CB189
:200FE000012C1DD0022C1ED04FF44075092816D1744C1034206820F44070206020682843E8
:201000002060206840F400402060206840F480302060FFF743FF216821F40041216030BD63
:201020004FF48075E2E74FF40075DFE7F0B515461E460746FFF732FF092815D1614C103451
:20104000206820F440702060206840F440702060206840F0010020603D607E60FFF71EFF11
:20106000216821F001012160F0BD70B50D460646FFF714FF092814D1524C1034206820F445
:2010800040702060206840F400702060206840F0010020603560FFF701FF216821F0010114
:2010A000216070BD70B50D460646FFF7F7FE092814D1444C1034206820F440702060206895
:2010C00040F480702060206840F0010020603580FFF7E4FE216821F00101216070BD70B537
:2010E0000D460646FFF7DAFE092812D1354C1034206820F44070206020682060206840F01E
:20110000010020603570FFF7C9FE216821F00101216070BD2B4814300068C00705D0294876
:201120002B49083001602B490160704725481430016841F001010160704730B50D4604462F
:20114000FFF7ACFE092807D11E48163001880DB1A14300E02143018030BD30B50D460446DB
:20116000FFF79CFE092807D116481A3001880DB1A14300E02143018030BD124A1732117823
:2011800001F07F0108431070704730B50D460446FFF784FE092807D10A48163001880DB17A
:2011A000214300E0A143018030BD30B50D460446FFF774FE092811D102481A3001885DB171
:2011C00021430AE0003C024023016745AB89EFCD3B2A19087F6E5D4CA143018030BD10B550
:2011E0000446FFF75BFE092801D13548047010BD70B515460C460646FFF750FE092808D129
:201200002F49491E087800F00F0004432C4334430C7070BD2A49491E0A7822F010020A70A0
:201220000A7802430A7070472549491E0A7822F00C020A700A7802430A7070472048401E07
:20124000017841F00201017028E61D48401E0068C0F3471070471A48401C00887047184819
:20126000401D008870471648401C008870471448401D00887047124900200978AA2900D042
:20128000012070470E48401E007800F00C0070470B4A521F0029116801D0014300E0814376
:2012A000116070470146064A0020093A12680A4200D00120704702490939086070470000F2
:2012C000153C02400E490120886070470C4908600868704710B50022094B03E050F82240B8
:2012E0001C60521C8A42F9D3186810BD0448006870470349087170470148007970470000BF
:2013000000300240704710B5203AC0F00B80B1E81850203AA0E81850B1E81850A0E818500E
:20132000BFF4F5AF5FEA027C24BFB1E81850A0E8185044BF18C918C0BDE810405FEA827CC3
:2013400024BF51F8043B40F8043B08BF7047D20728BF31F8023B48BF11F8012B28BF20F8CC
:20136000023B48BF00F8012B704702F0FF0343EA032242EA024200F006B8704770477047C5
:2013800070474FF000020429C0F0128010F0030C00F02080CCF1040CBCF1020F18BF00F8ED
:2013A000012BA8BF20F8022BA1EB0C0100F012B85FEAC17C24BF00F8012B00F8012B48BF4A
:2013C00000F8012B70470000004870473C0000204FF0000200B5134694469646203922BF98
:2013E000A0E80C50A0E80C50B1F12001BFF4F7AF090728BFA0E80C5048BF0CC05DF804EB17
:20140000890028BF40F8042B08BF704748BF20F8022B11F0804F18BF00F8012B70477546EE
:20142000FFF7D2FFAE4605006946534620F00700854618B020B5FFF7FBF8BDE820404FF0F8
:2014400000064FF000074FF000084FF0000B21F00701AC46ACE8C009ACE8C009ACE8C0098D
:20146000ACE8C0098D46704710B50446AFF300802046BDE81040FEF7D0BE4FF04070E1EEB8
:20148000100A7047A41400080000002030000000C4010008D41400083000002070480000A6
:2014A000E0010008000000000000000000000000007A030A000000000000000001020304B2
:1414C0000607080900000000010203040102030406070809C8
:2080000000080010E5840008ED840008EF840008F1840008F3840008F58400080000000066
:2080200000000000000000000000000081830008F984000800000000398400089D840008C1
:20804000FF840008FF840008FF840008FF840008FF840008FF840008FF840008FF840008C8
:20806000FF840008FF840008FF840008FF840008FF840008FF840008FF840008FF840008A8
:20808000FF840008FF840008FF840008FF840008FF840008FF840008FF84000845BC00080A
:2080A000FF840008FF840008FF840008FF8400089DD80008FF840008FF840008FF84000876
:2080C000FF840008FF840008FF840008FF840008FF840008C1D80008FF840008FF84000832
:2080E00029BC0008FF840008FF840008FF840008FF840008FF840008FF840008FF840008C6
:20810000FF840008FF840008FF840008FF840008FF840008FF840008FF840008FF84000807
:20812000E5B30008F5B50008FF840008FF840008FF84000827BB0008FF840008FF8400084C
:20814000FF840008FF840008FF840008FF840008FF840008FF840008FF840008D7D800089B
:20816000FF840008FF840008FF840008FF840008FF840008FF840008FF840008FF840008A7
:20818000FF840008FF840008FF840008FF840008FF840008FF840008FF840008FF84000887
:2081A0000000000000000000FF84000800F002F800F09FF80AA090E8000C82448344AAF16D
:2081C0000107DA4501D100F094F8AFF2090EBAE80F0013F0010F18BFFB1A43F0010318472C
:2081E00064010300D40103000A4410F8013B13F0030408BF10F8014B1D1108BF10F8015B2F
:20820000641E05D010F8016B641E01F8016BF9D1002D15D010F8014B03F00C030C2BA1EBB7
:2082200004040ABF10F8013BA4EB8314A4EB032405F1010314F8016B5B1E01F8016BF9D52F
:20824000914238BF10F8013BD1D370470023002400250026103A28BF78C1FBD8520728BFA6
:2082600030C148BF0B6070476E2900F05F83702900F00284662926F0ED82652926F0EA8248
:20828000672926F0E782612926F0E682642900F01183752900F00E83782900F0E083036838
:2082A000DB0928BF41F08001632901F03886732901F03D86F32901F06386002070471FB515
:2082C00026F0B3FA9DE8030001F0D2F900F047FE01F0AFF904000020002125F019FC401CFE
:2082E00060600020002125F029FCE0601FBD10B510BD02F031FB1146FFF7E1FF0FB405F092
:2083000067FB0FBC16F02CFE02F0C8FD03B4FFF7EEFF03BC05F06AFB80F309887047EFF3F9
:2083200009807047684680F3098804480078C00714BF0220032080F314887047B9490308D5
:20834000DFF818C0EFF305831B0618BF6047EFF31483DB0708BF604700DF704783C80208B1
:20836000DFF818C0EFF305831B0618BF6047EFF31483DB0708BF604700DF7047D1CA020841
:20838000EFF30980816911F8021CE1BB90E80F1010B5E047BDE81040EFF3098C8CE807005B
:2083A000214B93E80600914208BF704741B91EF0100F16D11D49086820F00100086010E032
:2083C0001EF0100F06BF2CED108A0120002081F825002CE9F00FC1F828C00CB424F06AFF27
:2083E0000CBC1A60D2F828C0BCE8F00F92F8250000280EBF6FF0020E6FF0120EBCEC108A12
:208400008CF30988704710B5094A1268914209D8084C54F8214090E80F10A047EFF3098C59
:208420008CE80F0010BD00000C00002034EF00E060C0020860C0020810B524F0FFFDBDE8EF
:208440001040154B93E80600914208BF7047EFF3098C1EF0100F06BF2CED108A012000203D
:2084600081F825002CE9F00FC1F828C00CB424F021FF0CBC1A60D2F828C0BCE8F00F92F894
:20848000250000280EBF6FF0020E6FF0120EBCEC108A8CF3098870470C00002010B524F0C6
:2084A000D1FFCCE710B524F0EBF924F0CBFFC6E70B49D1F800C04A685CF8043B10681844FB
:2084C00042F8040B8C4528BFA1F1DC0C8A4228BFA1F1DC02C1F800C04A6020F000407047D4
:2084E000D00A00200948804709480047FEE7FEE7FEE7FEE7FEE7FEE7FEE7FEE7FEE7FEE7E0
:2085000004480549054A064B704700007DD80008AD81000800100010000800100088001007
:208520000000001000487047940900207047000010B501F07EF8001D10BD00BFD5550200B7
:2085400070B5A0FB0140B4F1805170F1000024BF002070BD204600F050F805001CBF21462E
:2085600000F0CFFE284670BD0844401E491E884370470821001DF7E72DE9F04117460E46F4
:208580000446FFF7F6FFA042054633D9002F1CBF06F10C0005F0E9F930467468F4B1216809
:2085A000A94217D305F1080291423CBF6168416007D3626861194A602268521B0A604160E4
:2085C0002560002F1CBF06F10C0005F0F4F9201DBDE8F08120466468002CE0D129463046E0
:2085E00001F032F80028D7D1002F1CBF06F10C0005F0E1F90020BDE8F08110B5044601F07E
:2086000013F801682046BDE810400122B4E770B516460D46041F002808BF70BD002E1CBFB1
:2086200005F10C0005F0A1F92B465868002818BFA04238BF0346F8D31968CA18A24218BF6E
:208640005C6003D122681C461144196021680A19824218BF606004D14268626000680844D4
:208660002060002E1CBF05F10C0005F0A4F970BD10B5044600F0D8FF01682046BDE8104016
:208680000122C4E753EA020C00F069802DE9F04B4FF00006002B1FBFB3FA83F503FA05F42E
:2086A00024FA05F65E4012BF1643B2FA82F502FA05F4C5F120051EBF22FA05FC44EA0C04AE
:2086C000203556EA044C4FEA144418BF641C4FF000084FF00009904271EB030C39D30029CC
:2086E00019BFB1FA81F701FA07F6B0FA80F700FA07F6C7F120071EBF20FA07FC46EA0C0654
:208700002037B6FBF4FCA7EB0507103F07F01F0BCBF120062CFA06F60CFA0BFB44BFB34647
:208720000026202FA4BF5E464FF0000B5BEA060C08BF4FF0010B19EB0B0948EB0608ABFB0B
:20874000027C06FB02CC0BFB03CCC01B71EB0C01C1E70B46024641464846BDE8F08B13B575
:20876000084318BF4FF0FF300146AFF30080BDE81C40704710B50446FFF7DAFE0068005DA6
:20878000C00602D504F1200010BD204610BD00000FB4044910B503AA029801F0CDFB10BC86
:2087A0005DF814FBD02300200FB41CB5084B06AA7B4469460090059801F087FB0446002033
:2087C000694601F095FB20461CBC5DF814FB00003D1700000FB41CB50C0007AA009007D0BB
:2087E0004142A14202D32044401E01E04FF0FF30074B7B4469460190069801F066FB0021CB
:20880000002C01D0009A11701CBC5DF814FB00000517000070B5044685690068C10601D586
:20882000302600E02026C00707D070BDD4E9012130469047206A401C20626D1EF6D570BDDA
:2088400070B5044685690078C00707D170BDD4E9012120209047206A401C20626D1EF6D5C3
:2088600070BD70B50C460546012A05D02878800600D5EA69002302E0012305E05B1C934261
:2088800002D2E05C0028F9D1A869E618C01AA861286A184428622846FFF7BCFF04E0D5E9AB
:2088A000012114F8010B9047B442F8D32846FFF7C7FF70BD2DE9F0410646002410687529C2
:2088C000314616A510D0AFF30080002802DA404213A507E031688A0701D512A502E0490756
:2088E00004D511A5012401E0AFF3008000210A2206F1240709E0B0FBF2FCB0FBF2F302FB43
:208900001C00303078541846491C0028F3D123462A463046BDE8F04100F0EDBE00000000A0
:208920002D0000002B0000002000000011680268006A530501D508700AE0D30501D50880AC
:2089400006E0130603D5C217C1E9000200E00860012070472DE9FF5F15468A460446DFF8DB
:20896000AC80F8440027D8E900103E46CDE9001010E03AF816106A4602A801F029FC411C38
:2089800007D02178890603D5E269391891420DD80744761C2078800602D5E069B84205DDB5
:2089A000AE42E6DB3AF816000028E2D1A069C01BA0612046FFF72EFFD8E90010CDE90010DE
:2089C000002017E03AF818106A4602A801F000FCB0F1FF3F81460BD000250DF1080B05E043
:2089E000D4E901211BF8050090476D1C4D45F7D308F10100B0428046E4DB206A38442062CB
:208A00002046FFF71DFFBDE8FF9F0000F25F0200F0B40D460188090502D51B4C7C4402E0DA
:208A2000194C7C440E34002100F1240305E002F00F061209A65D5E54491C002AF7D1027809
:208A40000023120704D5702D06D009B1022311342246F0BC00F04FBE01231034F8E770B5ED
:208A600004460D4621461068AFF30080024629462046BDE87040CBE70368126843F02003F9
:208A800003600823C361C3E7405F02002DE9F05F894604464FF0000ADFF874B1FB44C0F81F
:208AA00020A02046E1688847002874D0252806D0D4E901219047206A401C2062F1E70026CD
:208AC0005F462046E16888472028054607DB312D05D2781910F8200C08B10643F1E7B00773
:208AE00001D526F00406C4F81CA00027C4F818A02A2D09D0284623F065FC38B304EB8708F2
:208B0000303DC8F8185019E059F8041B204604EB87029161E1688847012F054618D1E069C2
:208B2000002820DA26F020061DE0D8F8180000EB800005EB40003038C8F818002046E16868
:208B40008847054623F03EFC0028EED1012F0AD02E2D08D12046E16888477F1C0546022FF4
:208B600046F02006C4DBA069002803DA404246F00106A061F00701D026F010066C2D0BD0C4
:208B8000682D09D04C2D39D06A2D35D0742D35D07A2D33D016E038E0E1682F4620468847F8
:208BA000B842054609D16C2F26D04FF48060E168064320468847054604E06C2F1AD04FF424
:208BC000807006430DB3A5F14100192802D8203546F400664A462946204626604E46FFF740
:208BE00043FB80B101280BD0F61D26F0070000F1080956E74020E4E78020D8E70020D6E72C
:208C000006F104094DE7284652E7206ABDE8F09FE85E02000FB400B58DB010A909900091D7
:208C20000B904FF0FF300A9000200C90064878440690064878446A4607900F9909A801F09A
:208C4000B7F90DB05DF814FB9F130000B71300002DE9FF5F1D464FF0FF3B91464FF0000859
:208C60005F46D5E90146A96901987F1C8847296A824688470028F6D1BAF1FF3F0CD0002E29
:208C800024F4C06419DD600614D5BAF12B0F09D0BAF12D0F0ED103E0584604B0BDE8F09F66
:208CA00044F48064A96901987F1C8847761E8246002E02DDBAF1300F03D0B9F1000F26D0AE
:208CC00032E0A969761E01987F1C44F400748847002E824605DDBAF1780F06D0BAF1580F3B
:208CE00003D0B9F1000F10D01EE0B9F1000F02D0B9F1100F18D1A969761E01987F1C24F4DB
:208D0000007488478246102002E0082000E00A20814609E0A96908FB0908761E01987F1C66
:208D200044F4007488478246002E05DD4946504601F02AF90028EDDAE96901988847A00559
:208D400002D46FF00100A8E7E00725D1600613D5600502D5C8F1000000E0404629680A1D10
:208D60002A600968220501D5087015E0220701D5088011E008600FE02868011D2960006820
:208D8000210502D580F8008006E0210702D5A0F8008001E0C0F8008038467EE72DE9FF5F71
:208DA0004FF000089946144646469169D2E901A7DDF838B001988847054659EA0B0005D0B7
:208DC00009E0A1690198761C88470546216A284688470028F5D1681C03D05FEACA7005D0F6
:208DE00015E04FF0FF3004B0BDE8F09F2068011D2160D0F800800AE05FEACA7001D108F87A
:208E0000015BA169761C01987F1E88470546002F1ADD681C18D0B9F1000F0DD0E81705EBF3
:208E2000D060421120F01F0059F822102A1A012090400142E0D107E0BBF1000FDCD1284617
:208E4000216A88470028D7D0E16901988847BBF1000F07D1002E05DD5FEACA7002D100211D
:208E600088F80010A068B84203DDBBF1000F03D017B16FF00100B6E73046B4E770B50646AB
:208E800000F0DCFB0468054630460A22002101F067F92C6070BD2DE9F05F93460F4680462E
:208EA0000446002600F0CAFBD0F80090824614F8015B2DB1FFF73CFB0068405DC007F6D167
:208EC0002B2D02D02D2D1AD0641E0021CAF800105A463946204601F09BF8014627B13868E7
:208EE000A04201D1C7F80080DAF80000022809D0CAF80090700505D54842BDE8F09F46F411
:208F00008066E2E70846F8E710B5044603E010F049FE401C09D014F8010B05490028F6D1B2
:208F2000BDE810400A2010F03DBE4FF0FF3010BDD02300200B4910B5A1F17C020A4CC2E99F
:208F40003712372106E000EB104342F82130074B00FB03400B1EA1F10101F4DC10BD0120B6
:208F6000E8E70000700A0020E119D666CD0D01000EB5054614460E4613A001F058F9284658
:208F800001F055F916A001F052F9304601F04FF915A001F04CF900218DF80B100A210DF11C
:208FA0000A008DF80A1008E094FBF1F201FB124294FBF1F4303200F8012D002CF4DC01F075
:208FC00036F901F029F900002A2A2A20617373657274696F6E206661696C65643A200000FA
:208FE0002C2066696C6520002C206C696E652000401ECAB210F8011F8A4202D00029F9D1BE
:209000000020704710B5431E13F8014F002CFBD105E011F8014B002C03F8014B03D0521E10
:20902000F7D20021197010BD30B505460B462A4613F8014B12F8010B08B1A042F8D01CB162
:20904000002802D06D1CF1E7284630BD40EA010310B59B070FD1042A0DD310C808C9121FFD
:209060009C42F8D020BA19BA884201D9012010BD4FF0FF3010BD1AB1D30703D0521C07E003
:20908000002010BD10F8013B11F8014B1B1B07D110F8013B11F8014B1B1B01D1921EF1D129
:2090A000184610BD10B5431C02E010F8011B71B18107FAD14FF0013202C88C1A8C4314EA37
:2090C000C211F9D0C01A0A0603D0C01E10BDC01A10BD0A0401D0801E10BD0902FCD0401E66
:2090E00010BD40EA010370B59B072ED14FF00136042A2AD308C810C99D1B9D43121F15EA9D
:20910000C61517D0D8B2E1B2401A50EA056110D198B2A1B2401A50EA05410AD123F07F4071
:2091200024F07F41401A50EA052102D1180EA0EB146070BDA342DBD018BA21BA884201D99B
:20914000012070BD4FF0FF3070BD0AB9002070BD10F8013B11F8014B63B1A3420AD1521E39
:2091600008D010F8013B11F8014B1BB1A34201D1521EEDD1181B70BD421E12F8013F002B98
:20918000FBD111F8013B002B02F8013BF9D17047032A40F2308010F0030C00F0158011F830
:2091A000013BBCF1020F624498BF11F801CB00F8013B38BF11F8013BA2F1040298BF00F88B
:2091C00001CB38BF00F8013B11F0030300F06780083AC0F0088051F8043B083A51F804CB5E
:2091E000A0E80810F5E7121D5CBF51F8043B40F8043BAFF30080D20724BF11F8013B11F87E
:2092000001CB48BF11F8012B24BF00F8013B00F801CB48BF00F8012B7047431A28BF9A4269
:209220007FF6B6AF10441144032A40F2268010F0030F1EBF11F8013D521E00F8013D10F0CA
:20924000030F7FF4F6AF11F0030301F00D80083AC0F00B8051F8043D083A51F804CD40F8C4
:20926000043D40F804CDFFF7F3BF121D5CBF51F8043D40F8043DAFF30080D20724BF11F8C8
:20928000013D11F801CD48BF11F8012C24BF00F8013D00F801CD48BF00F8012C704710B5F5
:2092A000203AC0F00B80B1E81850A0E81850B1E81850A0E81850203ABFF4F5AF5FEA027CBF
:2092C00024BFB1E81850A0E8185044BF18C918C0BDE810405FEA827C24BF51F8043B40F81F
:2092E000043B08BF7047D20728BF31F8023B48BF11F8012B28BF20F8023B48BF00F8012BE8
:2093000070474FF000020429C0F0128010F0030C00F01B80CCF1040CBCF1020F18BF00F8F2
:20932000012BA8BF20F8022BA1EB0C0100F00DB85FEAC17C24BF00F8012B00F8012B48BF4F
:2093400000F8012B70474FF0000200B5134694469646203922BFA0E80C50A0E80C50B1F189
:209360002001BFF4F7AF090728BFA0E80C5048BF0CC05DF804EB890028BF40F8042B08BFE3
:20938000704748BF20F8022B11F0804F18BF00F8012B704710B5044610F0030F08BF11F05F
:2093A000030F40F015804FF0013E121FC0F20E8051F8043BA3EB0E0C2CEA030C1CEACE1CA2
:2093C00008BF40F8043BF0D0A1F1040102F10402521E08DB11F8013B00F8013B002BF7D140
:2093E0001146FFF78EFF204610BD00000000000030B44FF0013C50F8042B51F8043BCCFA3B
:2094000052F4D51A20D1FCB950F8042B51F8043BCCFA52F4D51A17D1B4B950F8042B51F862
:20942000043BCCFA52F4D51A0ED16CB950F8042B51F8043BCCFA52F4D51A05D1002CDAD048
:2094400030BC4FF00000704729BAB1FA81F111F01801D1F120008440F2D1CA40CB4012F090
:20946000FF0213F0FF0330BCD01A7047014900F025BF0000D80A002010B503681C1404EBEA
:2094800021449BB289B2194494FBF2F302FB134394FBF2F401EB034393FBF2F102FB113164
:2094A00093FBF2F301E05B1E11440029FBDB016003EB044010BD2DE9F04704464FF0FF3A1C
:2094C00086B00068029060680390A0680490E068019020690090656905F18040B0F1004FFF
:2094E0007DD83C22002102A8FFF7C6FF3C22014603A8FFF7C1FF1822014604A8FFF7BCFF4F
:20950000411E40F2B55201A8FFF7B6FF0C22064668460021FFF7B0FF00EB860028443E4D09
:2095200000267D440FE09A1A491CCDE90012022902D00C2907D104E0810704D0521C019229
:2095400001E0401C00960099019B6A5C9A42EADD012906D11C2B04D1810702D00221CDE94A
:209560000016A0F146018B2940D20199009B00220F4602E0AE5C521C31449A42FADB012BDF
:2095800002DD820700D0491E40F2B55540F26D16C21700EB927292106A4300F0030505FB2C
:2095A000062285070A4400D1521E049D02EB4206DDF80C80A94605EBC605184EC5EB051557
:2095C000DDF808C008EB850535442E14ADB2C6EB0616C5EB0515B6000CEB850500E005E0C4
:2095E00006EB154666F31F45360C03D0504606B0BDE8F087C4E904307F1C0720521CC4E927
:20960000029792FBF0F3E4E806C800FB132084E803042846EBE7000099540200A039CEFD33
:20962000704770477047704710B5FEF77BFF083010BD10B5FEF776FF203010BD04F07CB9A0
:20964000704770477047704738B504460A4600206946AFF30080002808BF38BD02460099F1
:20966000204600F08EFE012038BD012001F06DB9F8B5AFF30080054600200C46102000BF3F
:209680000646A819A0420DD9324669460020AFF30080070008BF01F058F90098A04218BF2B
:2096A0000546C419FFF7C0FF05600746F01D20F007004619284600F00AF8B44208BFF8BDC6
:2096C000A21B31463868BDE8F84000F05ABE00210160C0E901100C3004F056B9102070476F
:2096E00010B5FFF7ABFF006810BD10B50446FFF7A5FF046010BD2DE9F0470D46994692469F
:20970000044600F124080168880604D5E06921F01001216000E00120A84201DD471B00E01B
:209720000027A1697A1902EB0900081AA0612078C00602D42046FFF76DF8002608E0D4E98C
:2097400001211AF806009047206A401C761C20624E45F4DB2078C0060AD52046FFF75AF8B1
:2097600006E0D4E9012130209047206A401C2062381EA7F10107F4DC07E0D4E9012118F8F9
:2097800005009047206A401C2062281EA5F10105F3DC2046FFF754F82078000602D5022095
:2097A000BDE8F0870120FBE72DE9FF4F0C461E464FF0FF378BB0D2E90001DDF860800A90B5
:2097C0008A46C1F30A5505B93D46002108464FF00000BAF1000F00F4400005DA00EB80007F
:2097E0004FF4400101EA50004FEA9059B9F1010F00DDB9460A9850EA4A000ED044F6105054
:20980000A5F2FF3545432F14B8F1000F1ED07542291E1EDDC9F100021CE0B8F1010F4FF063
:20982000000001D0302103E0F24305E02154401CB042FBDB30460022002121540B99C1F8E5
:209840000880C1E900200FB0BDE8F08FBD1B6D1CDEE74A4600DA694206A800F0FDFF06AB4D
:2098600093E8070003AB83E8070050460A9921F0C3FF8DE80700A0F500501F380090039857
:20988000002D0ADD42F21F014A460844002303A90390684622F06EFA09E0A0F500504A469C
:2098A0001F38002303A90390684622F08DFA8DE807000004000C03D04FF0FF30410800E0B2
:2098C0001046B8F1000F03D00022009215461EE0751E05D400F077FD303262556D1EF9D558
:2098E000B3460122084302D000227F1C04E02078302801D100227F1E002A099784D01DE0F2
:20990000112D07DA00F05FFD303262556D1C50EA0102F5D1084302D00098C8B10EE00021FA
:20992000681E05E0235C625C63542254401E491C8142F7DBAB46A81B401E0990002004F833
:209940000B000B98099AC0F80880C0E9002B7AE711264FF0000857E72DE9F04F8846044618
:20996000D21D22F0070191B0D1E90001CDE90A0122F078FB02460B98C00F01D02D2007E0DD
:209980002068810701D52B2002E0202101EAC000032A099001D0072A05DB034641462046EA
:2099A00000F060FD0BE12078800601D5E06900E00620B8F1650F814606D0B8F1660F18D06B
:2099C000B8F1670F70D131E00020B9F1110F009001DB112301E009F101030AAA01A90CA89B
:2099E000FFF7E2FEDDE90C70002609F10105834647E001204B4600904FF000470AAA01A913
:209A00000CA8FFF7D1FEDDE90DB00C995D46002610B909F101000D18B9EB050003D4C0F1C2
:209A2000FF3609F10105A5EB09002BE0B9F1010F01DA4FF001090020B9F1110F0090484667
:209A400001DD112300E003460AAA01A90CA8FFF7ABFEDDE90C704D460026834620780007B7
:209A60000AD4AB4500DA5D4601A8012D04DD411911F8011C302907D04F4502DA17F1040FA8
:209A800004DA012082460FE06D1EEEE7002F02DCED1B3E4403E0781CA84200DD7D1CB81B6F
:209AA00000F1010A4FF000472078000703D4AA4501DB4FF0FF3A0021B7F1004F0DF143080A
:209AC0008DF8431024D002202B23002F01DA7F422D230A21021EA0F1010000DC5FB197FBD4
:209AE000F1FC97FBF1F201FB1C7C17460CF1300C08F801CDEEE7A8F1010003702188090573
:209B000001D5452100E06521A0F1010800F8011C09980FA9A1EB0807FF1D00B101204119B8
:209B200001EBEA70A1693844081A401EA0612078C00602D42046FEF76DFE099828B1D4E9A7
:209B400001219047206A401C20622078C00622D52046FEF75FFE1EE0002E04DBB34502DDB5
:209B600001A8805D00E03020D4E901219047206A401C2062761CAAF101005FEA000A0AD1B5
:209B8000FFF757FDC0680168405CD4E901219047206A401C2062281EA5F10105DCDC07E0AF
:209BA000D4E9012118F8010B9047206A401C2062381EA7F10107F3DC2046FEF741FE0320E9
:209BC00011B041E62DE9F04F04460D46D21D22F0070089B0D0E900974846394622F042FABF
:209BE0000246F80F01D02D2307E02068810701D52B2302E0202101EAC0038DF820300BB178
:209C0000012000E00020032A824601D0072A04DB2946204600F026FC3FE12078800601D453
:209C20000D2500E0E569C7F30A560D2D49DA00214FEA175B08464FF00000002F00F4400091
:209C400007DA00EB80004FF4400100EBD07001EA60008115012901DD4FF0FF3100224FEA56
:209C6000850CBCF1180F06D31346ACF118004FF08052C24003E04FF4801323FA0CF30CF1B3
:209C80000C0CBCF1200F04D3ACF1200C09FA0CF001E007FA0CF000294FF0004801DD18B9F4
:209CA0000FE00ED140450CD319EB02095F4121B9404502D19F4329EA0209BBEB175F00D0A5
:209CC000761C2088000502D57B48784402E07A487844193808AA302302F80A30037C0AF18B
:209CE0000101002E0AF1020A53546A4602DC4FF0300101E04FF031014FF001088DF8001059
:209D000002D0A6F2FF3603E059EA470100D06B4E002D02DC2178090704D54FF002082E2188
:209D20008DF80110C44600210BE0C7F303433F01C35C491C6D1E02F80830052908F10108C6
:209D400001DA002DF1DC00210CE000EB1973491C1B786D1E082902F808304FEA091908F170
:209D6000010801DA002DF0DC21688B0602D516E0A8F10108E04505DD02EB080313F8013C36
:209D8000302BF5D0B8F1000F09DD02EB080313F8013C2E2B03D1090701D4A8F10108002DE4
:209DA00005DD3E2102F808106D1E08F10108407C002E02F8080008F1010804DA2D207642F2
:209DC00002F8080002E02B2002F808000A214FF47A70864208F101080BDB96FBF0F3303373
:209DE00002F8083096FBF0F308F1010800FB136601E0642E0CDB642096FBF0F3303302F898
:209E0000083096FBF0F308F1010800FB136601E00A2E06DB96FBF1F0303002F8080008F159
:209E2000010896FBF1F001FB1060303002F80800A16908F1010808EB050202EB0A00081ABA
:209E4000A0612078C00602D42046FEF7E3FC216A08AE01EB0A00206204E0D4E9012116F809
:209E6000010B9047BAF1010AF7D22078C00602D52046FEF7CFFC6E4609E016F8010B3E2808
:209E80000FD0D4E901219047206A401C2062B8F10108F2D22046FEF7D3FC09B00320BDE8A4
:209EA000F08F206A2844206203E0D4E90121302090476D1EEBD3F8E7DE4C020002FCFFFF72
:209EC00001694A1C02610878704700B58FB0CDE901310021059105497944CDE9031011465A
:209EE0006846FEF7D3FD0FB000BD0000E5FFFFFF0A6802F8010B0A607047D1E900239A423F
:209F000002D2531C0B601070704710B5436913B1AFF3008001E0FEF7A4FC012010BD127817
:209F200000F124010A7000224A700122EDE711684FF0FF32E9E70000074B70B50D467B447C
:209F4000FFF7C3FF044628460FF0C1FC10B14FF0FF3070BD204670BD63FC000010B5436916
:209F600013B1AFF3008001E0FEF7F4FC012010BD128800F1240182840022C2840122EDE732
:209F800011684FF0FF32E9E73A2800D2303820F02002412A01D3A2F13700884201D34FF054
:209FA000FF307047026811441378016018467047D16005497944516104497944116200216F
:209FC0001161114600F08EBAEDFFFFFF93040000426842B1016811F8013B23B1521EC0E9C7
:209FE0000012184670470121C160881E704742685AB1C368016843B983688B4205D0491E61
:20A00000521CC0E90012002070474FF0FF3070472DE9F05F824615468B4600270AF101049B
:20A02000B9460078302801D09DB113E014F8010B0127782803D0582801D045B10AE00DB19D
:20A04000102D07D1002714F8010B102502E0082500E00A250026B0460EE005FB080005FB47
:20A0600006F101271FFA80F801EB1046B6F5803F00D3B94614F8010B2946FFF785FF002889
:20A08000EBDABBF1000F05D00FB1641E00E05446CBF80040B9F1000F06D0FFF7CFFA02213B
:20A0A0000160C81EBDE8F09F48EA0640FAE700000FB40B0010B54FF000048AB00FA9009173
:20A0C0000E99CC60234C7C44234A7A44CDE9064200D004236FF00042CDE901321F4A7A44AD
:20A0E0006B4608920246002024F018FC0AB010BC5DF814FBF0B507464FF0FF301E4615467C
:20A100000C463B4685B06A460091CDE9010131460020049004A8FFF7CBFF04990346601849
:20A1200025B109B1024600E022462A6000290ED0002B02DD0099814209D03B466A46314687
:20A14000001B0094CDE9010404A8FFF7B1FF05B0F0BD000007FFFFFF21FFFFFF6F0300004D
:20A160002DE9F04791460F4680460446002614F8015B2DB1FEF7DCF90068405DC007F6D18D
:20A180002B2D02D02D2D18D0641E4A4639462046FFF73EFF27B13968A14201D1C7F80080BC
:20A1A0004FF0020471050BD54042002803DDFFF745FA0460A007BDE8F08746F48066E4E733
:20A1C0000028F8DAFFF73AFA04606FF00040F2E72DE9F04116460C460546FEF7A9F903683D
:20A1E00093F80101012807D0FF2C12D8185D80B101202C70BDE8F081D3F807013246214692
:20A2000003F20713C7182846BC46BDE8F041002360474FF0FF30EDE710B5002000F08EFBA0
:20A22000FEF765F8BDE81040012003F0DFBB10B5044602E0641C03F0DAFB20780028F9D166
:20A2400010BD431A28BF9A427FF629A81044114410F0030F1EBF11F8013D521E00F8013D46
:20A2600010F0030F7FF4F6AF103AC0F00A8010B531E9185020E91850103ABFF4F9AFBDE82E
:20A280001040530724BF31E9081020E9081044BF51F8043D40F8043D12F0030F08BF704746
:20A2A000D20728BF31F8023D48BF11F8012C28BF20F8023D48BF00F8012C704770B50C46A1
:20A2C000016800204A1C3ED03C22B1FBF2F302FB1313B1FBF2F12360B1FBF2F302FB1313A9
:20A2E000B1FBF2F118226360B1FBF2F302FB1313B1FBF2F146F2E0320A440721A360B2FB1F
:20A30000F1F301FB132140F2B553B2FBF3F5A161B2FBF3F103FB15228900B2F5B77F08D351
:20A320009B10521EB2FBF3F52944B2FBF3F503FB15220F4BE261616189077B440CD03B2A47
:20A340000AD3521C08E02C212046FEF7FCFF0120E0600AE0521A401C195C9142FAD9521C8B
:20A36000C4E903204FF0FF302062204670BD000081460200801A0844401E491E88431044F7
:20A38000704770B5144605468C464368002B18BF634538BF1846F8D302681044604508D0BA
:20A3A0006646604604220821FFF7E4FF811B8446641A2946CCF80040BDE8704000220CF158
:20A3C0000400FEF724B930B5B0F10A0271F100034FEA900E4EEA817EB0EB0E0061EB91011B
:20A3E0004FEA101E4EEA017E10EB0E0041EB11114FEA102E4EEA016E10EB0E0041EB112163
:20A400004FEA104E4EEA014E10EB0E0041EB1141401841F100014FEAD00040EA41704FEAEF
:20A42000D1014FEA810444EA907410EB800544EB01046D1944EB0404521BA3414FF0000356
:20A4400048BF0A3200D530BD401C41F1000130BD10B50446FEF76CF80068005D00F001005D
:20A4600010BD00002DE9F0411F46044603260168072A01F4006004DB08B116A505E016A50E
:20A4800003E008B115A500E015A521F010002060A069C01EA0610FB1401EA0612046FEF7C9
:20A4A000B9F94FB1D4E9012138469047206A401C2062C01C206206E0206AFAE7D4E90121C0
:20A4C00015F8010B9047761EF8D22046FEF7B8F9BDE8F0814E414E006E616E00494E460015
:20A4E000696E66002DE9F34F4FF0000A0C4656468DB001200C9001F10C000B9062690B988F
:20A5000001219047051E2DD0252D2CD0216A8847C0B162690B9801219047216A8847002820
:20A52000F7D16269411E0B98904700E0761CA1690D988847216A88470028F7D1E1690D9886
:20A540008847DBE7A1690D988847A842074601D1761CD3E7E1690D9888477F1C02D1BAF1C0
:20A56000000F6FD06BE162690B9800273D46394690472A2804D162690B980121904701251F
:20A58000DFF8D08262690B9801219047A0F130010A290AD24745E5DC07EB870100EB410760
:20A5A000303FDFD445F01005ECE7E90601D46FF000476C280AD04C2814D0682815D06A2825
:20A5C0000DD074281CD07A281AD01DE062690B98012190476C2802D045F0040514E045F059
:20A5E00002050DE045F020050AE062690B9801219047682802D045F0080505E045F4006595
:20A6000062690B9801219047C4E9015765283DD019DC58287AD00CDC452837D004DC2528EC
:20A6200026D041289ED131E046282FD0472899D12CE05B2877D0612828D063287CD064283B
:20A6400023D15AE0F6E06F2848D008DC66281DD067281BD0692821D06E2816D127E07028D0
:20A6600045D0732868D0752847D078280DD14DE0A1690D988847252805463FF469AFE169E8
:20A680000D9888476D1C3FF46AAFD8E00D9923466A466FF0010024F041F9C5E045F0400032
:20A6A00023464FF000026060A80736D43EE0E8077FF447AF2068011D21600068290501D56E
:20A6C00006701BE7290701D5068017E7A90703D5F117C0E9006111E706600FE745F0400015
:20A6E00023464FF008026060A80716D41EE040F60E0125EA0100606016E045F04000234668
:20A700004FF00A026060A80707D40FE045F040006060A80708D5234610220D996FF0010053
:20A72000AFF3008080E007E0102223460D996FF00100FEF78DFA77E04FF0000963284F46D4
:20A74000C8464B46CB4602D05B2806D038E0E80601D40120A060012732E06269D4F80CB095
:20A760000B98012190475E2807D14FF0010949466269D4F80CB00B989047216939B900219D
:20A780000A4603AB43F82120491C0829FADBD8B3216949B308F1010862690B98012190475A
:20A7A0005D28F4D1B9F1000F09D0002003A951F82020D24341F82020401C0828F7DB03ABCE
:20A7C0002069002820794FEA40701ED05B462246CDF80080CDE901970D9900286FF001008E
:20A7E00020DAAFF300801FE0C11703AA00EBD1614B1121F01F0102EB8302411A13680120A6
:20A80000884003431360C7E719E00D99224600286FF00100009702DAAFF3008004E0FEF70C
:20A82000BDFA01E0AFF3008000280ADA401C06D10C9820B14FF0FF300FB0BDE8F08F5046C3
:20A84000FAE7E90701D10AF1010A064400200C9054E60000CCCCCC0C2DE9F047814616462F
:20A860008AB0354878440DC88DE80D0032487844801C03AC0DC884E80D0041F69B300844F1
:20A88000372190FBF1F290FBF1F5A5F1800501FB12041B3C02D56442012000E00020DFF888
:20A8A00098A080460027FA44AAF1BE0A0EE0E0070AD03246684607EB470101230AEB810128
:20A8C00021F082FA8DE8070064107F1C002CEED1194F7F44AE3F19E0E80715D007EB04108A
:20A8E0000DF1180A90E80E008AE80E00C068F04201D1981908903246012306A903A821F0B6
:20A9000063FA03AB83E807006D10641C002DE3D14FF0010332466946B8F1000F03A802D03D
:20A9200021F028FA01E021F04FFAC9E90001C9F808200AB0BDE8F087E041020010B500F05F
:20A94000BBFABDE8104000F0B2BA10B500F0CCFABDE8104000F0ABBA7546FDF7E3FDAE46A9
:20A9600005006946534620F00700854618B020B5FDF7C6FDBDE820404FF000064FF00007C4
:20A980004FF000084FF0000BAC46ACE8C009ACE8C009ACE8C009ACE8C00921F007018D46D4
:20A9A000704700002DE9FF4F06468BB00878FF2806D0491C2D2805D000244FF0000908E095
:20A9C00000200CE00124F8E709EB8903491C00EB43090878FF28F7D114B1C9F10000814696
:20A9E000107800252C46AA4629462D2801D02B2804D1521C2D2813D0002082468B461078A4
:20AA0000FF280FD04FF0000C0A21521CA5FB017804FB018105FB0C11C5194BEB0104EEE7A7
:20AA20000120EAE7002108464FF00000BAF1000F02D000EB80004008C0F38157012F01DD9E
:20AA40004FF0FF370E9955EA040009EB01080BD04FF0020918F5FA7F16DA4FEACA70002F5D
:20AA6000706008DD012007E04FEACA70C6E900B00FB0BDE8F08F00203060FEF7DFFDC0F82B
:20AA800000901821084616E0B8F5FA7F18DD002F02DAF748784401E0F6487844D0E90010E4
:20AAA000C6E9001040EACA707060FEF7C7FDC0F80090142108460FB0BDE8F04F23F0C7BEE4
:20AAC000002108464FF00000B8F10001099002DAC7F1000200E03A4601DAC8F1000106A84C
:20AAE000FFF7BAFE06AB93E8070003AB83E8070044F23E005BEA04010090584604D144F25E
:20AB00001E012C465D460091210C0904014306D10099240444EA15442D041039009104F0D4
:20AB20007F41014306D10099240244EA15642D020839009104F07041014306D10099240155
:20AB400044EA15742D01091F009104F04041014306D10099A40044EA9574AD00891E00916E
:20AB600004F00041084304D100986D196441401E00904FF001033A466846B8F1000FCDE9F0
:20AB8000014503A902DD21F034F901E021F007F9BAF1000F04460D4601D084F000440021B3
:20ABA00008464FF00000099940F2FF77484010F00C0F07D124F00040284303D0C4F30A50A0
:20ABC000B84212D1FEF73AFDC0F80090C4F30A50B8420AD1A8487844D0E90010C6E900100A
:20ABE00004F000410843706042E7C6E900543FE72DE9FF4F1F464FF0000A4FF0FF384546A0
:20AC000091B0D7E90146CDF83CA0FEF712FDC0680168405C1090B96912986D1C8847396AB3
:20AC2000814688470028F6D1B9F1FF3F0AD0002E24F4D06411DDB9F12B0F08D0B9F12D0FC3
:20AC40000BD102E0404615B013E744F48064B96912986D1C8847761E8146600504A901D56E
:20AC60002D2000E02B20002E01F1010B0DF130088DF810003FDDB9F1690F08D0B9F1490F4D
:20AC800005D0B9F16E0F02D0B9F14E0F1CD13B4601A8009580E85002DDE912126FF002002E
:20ACA00023F040FEC11CCED10EE0B96912986D1C884781461398761E44F4007405600F98F7
:20ACC000401C002E0F9016DDB9F1300FEDD0B9F1780F02D0B9F1580F0DD10F9801280AD115
:20ACE0003B46CDE90054DDE91212001F029623F017FEC11CA7D1109989453ED144F080046D
:20AD000006E01399681CAAF1010A44F400740860B9696D1C1298761E884730288146F0D0CC
:20AD20002BE01099894505D1200603D4761E44F0800418E0484621F045FB08B3761E0DF14E
:20AD400023029345A9F1300044F4007406D20BF8010B200607D5AAF1010003E0200602D41C
:20AD60000AF101008246A00502D51399681C0860B96912986D1C88478146002ED1DC53E002
:20AD8000002E51DDB9F1650F02D0B9F1450F4BD1A00549D5B9696D1C1298761E24F44074D5
:20ADA0008847002E81460CDD2B2804D0B9F12D0F07D144F48074B96912986D1C8847761E1D
:20ADC0008146E00501D52D2100E02B2108F8011BCDF8008021E0761E0DF13901884544F444
:20ADE00000740CD2A9F1300010F0FF0088F8000002D10099884509D908F1010806E0E005D0
:20AE000001D51E4801E042F20F708246B96912986D1C8847814613980560002E04DD484602
:20AE200021F0D0FA0028D6D1F96912988847FF2053468BF8000088F8000000200A900B907D
:20AE400004AA0CA90AA8FFF7ADFDA00502D46FF00100F8E614F0240F12D0E0071CD13868F7
:20AE6000DDE90A12031D3B600068C0E9001213E024D9020016D90200DAD70200F1D8FFFFB5
:20AE80000AA9684621F068FAE00705D13868009A011D3960006802602846D4E610B504462F
:20AEA000AFF300802046BDE81040FDF72FBA002801D002F09BBD704710B5002102A000F0C6
:20AEC0004EF8012010BD0000534947414252543A2041626E6F726D616C207465726D696EFD
:20AEE0006174696F6E00000010B5012805D0002103A000F034F8012010BD09A1F8E700001D
:20AF000053494752544D454D3A204F7574206F662068656170206D656D6F727900000000CB
:20AF20003A2048656170206D656D6F727920636F7272757074656400B2F120030AD5C2F130
:20AF4000200301FA02F120FA03F341EA030100FA02F0704700FA03F14FF00000704770B5F5
:20AF600005460C460A2000E06D1C02F040FD35B128780028F8D102E0641C02F038FD14B1AD
:20AF800020780028F8D1BDE870400A2002F02FBD2DE9FF4F1F464FF03C0987B04FF00042C6
:20AFA000DDE9141001F10108DDF858A002EA40500390002005908346054604460490B96907
:20AFC000461E08988847AAF1010A0290BAF1000F3BDD02982E2815D01021FEF7D5FF00289D
:20AFE0002EDB4FF0010B0599014317D0B9F1000F0BDB4A46C117FFF79FFF05430C43A9F168
:20B00000040905E0012004900BE008B145F0010501200590049820B9361D02E0049800B1FD
:20B02000361FB969089808F101088847BBF1000FAAF1010A0290C9D00999C1F80080C5E715
:20B040000298702808D0502806D0F96908988847BBF1000F14D04FE0002002900120BBF17A
:20B06000000F049009D0B969089808F101088847AAF10109B9F1000F07DCF96908988847AF
:20B080006FF001000BB0BDE8F08F2B2804D02D280CD14FF0FF300490B969089808F1010852
:20B0A0008847A9F10109B9F1000FE6DD411CE4D00A21FEF769FF0028DFDB029908F1010889
:20B0C00001EB810100EB41000290B969089888470A21FEF759FF099AA9F10109B9F1000F3B
:20B0E000C2F8008001DD0028E7DAF969089888470499029800FB016655EA040004D004F0DA
:20B100004041090002D006E0039898E0A40044EA9574AD00B61E04F00041080002D16D19E8
:20B120006441761E159810F0240F03D04FF00B095C4803E04FF028096FF07D00824656459A
:20B1400007DAAAEB06018944B9F1410F01DD4FF0410901200021A9F10102FFF7EDFE02463C
:20B1600028400B462140084301D0012100E00021501E029143F1FF3128402140084301D02C
:20B18000012000E000200299834651EA0B014FD0002108464FF00000039900F4400039B15C
:20B1A00000EB80004FF4400100EBD07001EA60008015012802DD4FF0FF3000E013D0401C00
:20B1C00036D0029860B3BBF1000F0CD14A4601200021FFF7B1FE28402140084301D00120A7
:20B1E00000E00020E0B101204A460021FFF7A4FE034640190A4661412D1A8C4111D3B9F11E
:20B20000400F09DD159810F0240F02D0AAF1340603E0AAF1170600E0761C00254FF00044BD
:20B2200006E05B1E42F1FF3220EA030521EA0204CAF10100B04206DA1B49039808430190BF
:20B24000002000900EE0039AC4F3D321E80A0A43164940EA44500A433146CDE90002684682
:20B2600021F083F8159810F0240F0BD01598C00715D13868DDE90012031D3B600068C0E9E9
:20B2800000120CE002A8694621F066F81598C00705D13868029A011D39600068026040465B
:20B2A000F0E6000002FCFFFF0000F07F0000F03F2DE9FF4F92461D4685B04FF00041DDE904
:20B2C000124BDDE914727F1E01EA4B50414940F0FF4940EA0108002122F020004928049114
:20B2E00002D04E2828D04CE03BA0012607C88DE80700A9690698641C88477F1E014606D4D8
:20B300001DF8060018B121F0200181420BD0E96906988847032E34D0082E32D06FF00100ED
:20B3200009B0BDE8F08F761C032E01D0082EE0D1601CCAF80000DCE7A9690698641C8847B5
:20B340007F1E2AD420F02000412826D1A9690698641C88477F1E20D420F020004E281CD19F
:20B36000A9690698641C88477F1E48F4002849F48009CAF8004001D4282806D0E96906981A
:20B3800088475FEACB7012D022E0A9690698641C88477F1E01D4002803DAE9690698884741
:20B3A000BCE72928F1D1641CCAF80040E9E71BF0240F07D028680499031D2B600068C0E987
:20B3C000001805E02868021D2A600068C0F800902046A5E70000F07F494E46494E495459BC
:20B3E000000000002DE9F04F82B042F20000C4F20100006846F20841C4F202012022800671
:20B400000A6000F1EB8043F2760042F2A842C2F20000C2F200020189126842F2A447C2F25C
:20B42000000703883F68114442F29442C2F20002019107EB030B4189136842F29842C2F225
:20B4400000028689156803EB010942F29C41C2F20001AA190D6842F2A041C2F20001048A10
:20B460000F6842F29041C2F20001C68907EB040A0F6842F28841C2F2000105EB0608848819
:20B480000D6846882B19C48842F28C4C42F28440C2F2000CC2F2000007EB060EDCF8005037
:20B4A00007685E4605EB040B019D7C1C174642F2A842C2F20002156042F29442C2F20002DE
:20B4C000C2F8009042F29842C2F20002176042F29C42C2F20002C2F80080524642F2A04237
:20B4E000C2F20002046042F2A440C2F800A042F290420A2CC2F20000C2F200020660CDF8EF
:20B5000000A0C2F800E00B60CCF800B06ED34CF6CD444846CCF6CC44A0FB041C0098C146C4
:20B52000F046A5FB0425A6FB042EA7FB041AA9FB0412A0FB0417A8FB0410A3FB0416ABFBF4
:20B540000414E90843F29C05C2F2000529804FEADE0129824FEADC0169824FEADA01A982A7
:20B56000D108C008E982F9086884F00829836883E00842F28441E8830020C2F200010860BA
:20B5800042F2A841C2F20001086042F2A441C2F20001086042F29441C2F20001086042F2E1
:20B5A0009841C2F20001086042F29C41C2F20001086042F2A041C2F20001086042F2904130
:20B5C000C2F20001086042F28841C2F20001086042F28C41C2F20001086007E043F29A0060
:20B5E000C2F20000017841F00201017002B0BDE8F08F00002DE9F04F81B02DED028B82B044
:20B6000042F20020C4F20100006846F20841C4F202014FF4006280060A603ED443F2880910
:20B6200042F26441C2F20009C2F20001B9F800000B6842F2304783423CBF0860034640F24D
:20B640003801C2F200010A68C2F20007824284BF086002463E68CDE90023864226D242F2A5
:20B660006046C2F200063578012D28D142F26845C2F200052C680134032C2C6025D34FF041
:20B68000000CC5F800C048F6FC15C2F200052C6886F800C0661C2E6017E043F29A00C2F2BD
:20B6A0000000017841F001010170D8E10DD942F26046C2F200063578002D00F0D68142F2E5
:20B6C0006846C2F200060025356042F2704EC2F2000EB9F80240DEF800A0386040F23C0025
:20B6E000A2453CBFCEF80040A246C2F20000066842F23447A64284BF04602646C2F20007F3
:20B700003A68A2421DD242F26C42C2F200021578012D1FD142F27445C2F200052968013108
:20B72000032929601CD34FF0000CC5F800C048F60025C2F20005296882F800C001312960FB
:20B740000EE00DD942F26C42C2F200021178002900F09A8142F27441C2F2000100220A6096
:20B7600042F27C40C2F20000B9F80450D0F800C03C60AC453CBF0560AC4640F24000C2F293
:20B780000000D0F800B042F23844AB4584BF0560AB46C2F200042168A9421AD242F27847ED
:20B7A000C2F20007397801291CD142F28042C2F20002116801310329116019D30023136090
:20B7C00048F60422C2F2000211683B70013111600EE00DD942F27847C2F20007397800292C
:20B7E00000F0618142F28041C2F2000100220A6042F25440C2F20000B9F80610026825600F
:20B800000A440260B1F5007242F2584038BFC1F5007202FB02F142F23C45C2F2000000EE2E
:20B82000101AC2F20005B9F80810026895ED001AB8EEC00A0A4431EE000A0260B1F50072F5
:20B8400085ED000A38BFC1F5007202FB02F142F24042C2F2000201EE101A92ED002AB8EE89
:20B86000C11A32EE011A42F25C4382ED001A40F23402C2F20003C2F20002B9F80C00196843
:20B8800012880144801A42F22842404342F24449C2F2000201EE100AC2F20009106899EDD3
:20B8A000002AB8EEC11A013032EE011A1428196089ED001A1060C0F0D280002042F24848D6
:20B8C0001060C2F20008DDE90032D8F80010D21A8B1842F26441C2F20001086040F2380174
:20B8E00042F24C4740F2FF34C2F20001C2F200070C603968AAEB06028E1840F23C0142F2B9
:20B90000504AC2F20001C2F2000A0C60DAF80010ACEB0B0242F22C4CC2F2000C3E601144C9
:20B9200042F27C42DCF80070C2F20002106040F240020137C2F20002322FC8F80030CEF832
:20B940000000CAF800101460CCF80070C0F087809FED5C8A40F2611780EE080A7B4345F621
:20B96000C5241B09C0F67C24C346A846A3FB043506FB07F31B097943A3FB04360909A1FB35
:20B98000041343F29C04CCF80000E809C2F200046080F009E080D809608110EE100A22F029
:20B9A000D3FE41EC100B20F077FC51EC100B22F05FFB42F24045C2F2000595ED000AA08306
:20B9C00080EE080A10EE100A22F0BEFE41EC100B20F062FC51EC100B22F04AFB99ED000A0C
:20B9E000208480EE080A10EE100A22F0ADFE41EC100B20F051FC51EC100B22F039FB43F2D6
:20BA00008C31C2F200010978E081012910D142F25C40C2F20000006844F6D351C1F2620167
:20BA2000A0FB0101880940F23401C2F20001088042F24C410020C2F20001086042F254416D
:20BA4000C2F20001086042F25841C2F20001CBF80000CAF80000C8F800002860086002B060
:20BA6000BDEC028B01B0BDE8F08F42F26845C2F200052C680134032C2C60FFF426AE0024B2
:20BA80002C600125357020E642F27445C2F200052968013103292960FFF462AE002129607E
:20BAA000012111705CE642F28042C2F200021168013103291160FFF49BAE002111600121BD
:20BAC000397095E600007A4420B180B51821FDF73AFC80BD7047000082B0002100910168DA
:20BAE00041F218028B5843F480138B50895844F6D352009140F22401C2F200010968C1F270
:20BB00006202A1FB0212510A019100BF00BF01994A1E00290192F9D10099006841F21802D0
:20BB2000815002B0704740F68830C2F2000000F0DFBA70B5044631B14FF4006C4FF4804E8F
:20BB4000C4E902EC01E0D4E902EC2268E369106848F20F11CFF6207108404FF40071002B99
:20BB600008BF4FF4C06141EA0E01084340EA0C0010601568012000F04BF92068402105604F
:20BB800041604568012000F043F920684FF64172456000258560C5608169114080318161E8
:20BBA0008669012000F034F920688661C561C569012000F02DF9206841F21801C5614258CA
:20BBC00043F62373CFF6DE031A4042F0087242F0040242504558012000F01AF9206800F5E2
:20BBE00080518D6142F280014FF48055C0F2C12141514659012000F00BF9A1692068012923
:20BC0000465107D100F58050C16941F4803141F04001C161606948F240028188C4F2020244
:20BC200011600068506070BD43F61440C4F201004FF47841016047F6AC60C2F2000001218E
:20BC40000160704710B543F61440C4F2010004684FF4C0712206016008D541F21000C4F284
:20BC600002000068C0B2C00905F002F8E00558BF10BDBDE8104005F0D7B880B543F610432D
:20BC8000C4F20203D3F800C04FF4407E2CF440721A601A68032938BF4FEA012E42EA0E01C9
:20BCA000196019684FF0200C21F0F80119601A68C1000B2888BF0CEBC00141EA020040F0CA
:20BCC00002001860186840F48030186080BD43F60040C4F20200016889050FD5016821F447
:20BCE00000710160016841F400610160016821F400610160016841F40071016001684905AB
:20BD000058BF7047016821F480610160016841F480510160016821F480510160016841F477
:20BD200080610160704743F60C40C4F202000168C9064CF2E071C2F2010105D5CA6942F011
:20BD40001002CA61102202600268920605D5CA6942F00802CA61202202600268520605D55C
:20BD6000CA6942F00402CA61402202600268120605D5CA6942F00202CA618022026002680B
:20BD8000D20506D5CA6942F00102CA614FF4807202600268920758BF7047CA6942F020026F
:20BDA000CA61022101607047F0B581B004464CF2E07043F60C46C2F201000021C4F2020650
:20BDC000C16100F0F9FE3168C9030CD43068C0071CBF01203060306810F4F97F09D0FFF747
:20BDE000A2FF012006E00546671C05D04CB9032000E0002001B0F0BD3068C003E6D5002F2D
:20BE0000FAD000F0D9FE401BA042F5D9EFE70000B0B5044600F0D0FE054640F62810C2F2D6
:20BE200000000078611C18BF044400BF00F0C4FE401BA042FAD3B0BD2DE9F041044690F8ED
:20BE4000450001284FF0020008BFBDE8F0810D46012184F8451084F844002068002D016832
:20BE600066D048F20F12CFF620721140D5E900231143AA681943EB681143A26819432B6945
:20BE800011436A691943E3681143AA691943EB6911432A6A19436B6A1143AA6A194311438C
:20BEA000016006680120FFF7B3FF20680660D5E90BC2D5E90D3642EA0C02D5E90F1E1A43EE
:20BEC0003243D5E91178114341EA0E01394341EA0801416046680120FFF79AFF206805F1EB
:20BEE0004C0E46609EE806508160C26081694FF641721140D5E9172641EA0E0141EA0C4183
:20BF0000D5E919371143314319433943816186690120FFF77DFF20688661D5E91B12114361
:20BF2000C161C5690120FFF773FF2068C5610CE0D4E9022321F49041114319430160056848
:20BF40000120FFF765FF20680560012084F84400002084F84500BDE8F08100002DE9F0415A
:20BF600090F845704FF0020C012F35D080F844C0816233B3A3F1010C01F1080E01F12004FE
:20BF800000254FF000484FF48C4700BF4EF8088C86694EF8047C012ECEF8002008BF4EF86F
:20BFA000047C65450E4605F1010538BF2646CEF804600EF1200E02F5C062AB4204F120042E
:20BFC000E4D1026841F20C03D15001214FF0000C80F8441080F845C06046BDE8F08100006D
:20BFE000F0B590F845604FF0020C012E33D080F844C0C16223B3A3F1010C01F1080E01F1E0
:20C00000200400254FF480164EF8086CC769CEF800202FB95EF8087C47F440074EF8087C20
:20C0200065450F4605F1010538BF2746CEF804700EF1200E02F5C062AB4204F12004E3D167
:20C04000026841F21003D15001214FF0000C80F8441080F845C06046F0BD704790F8451072
:20C0600001294FF0020141D080F84410816A4FF0010C0A68002A1FD4012300BF0A6802F466
:20C080004072B2F5007F03D10163012206E000BF0A6812F4407F11D1826B0132C968826379
:20C0A00081620A68B2F1FF3F4FF00002C8BF01221A424FF00003E1D1012112E0826B41636A
:20C0C000531C8363002A06BF01630A46026B0B68C968C3F30D439268043B81620021C0E96B
:20C0E0000F32002280F844C080F8452008467047B0B50446006841F214014258520608D452
:20C1000001440968C90712D0204600F02BFB012103E0204600F0F4F94021206841F21402C1
:20C120008150012184F84410002184F8451041F214054FF4803141514059000458BFB0BD57
:20C140002046FFF78AFF20684FF400414151012084F84400002084F84500B0BDF0B583B055
:20C1600004460020002C02903FD094F8440028B9002084F84500204600F0F7F80020019000
:20C1800043F64400C4F2020001684FF4805641F480410160006800F480400190019843F612
:20C1A0000400C4F20100016821F4000101602168226A03681A430260885940F001008851BA
:20C1C00000F0FAFC054600BF20688159C9070ED000F0F2FC401BB0F5FA7FF5D903250020F2
:20C1E00084F8445084F845004CE001254AE0006920F01C0500F0FDFF4DF20031CFF6CE6108
:20C200004EF2BF120144C0F2E402914202D845F0080527E04FF24011CFF6E95147F63F022B
:20C220000144C0F27D12914202D845F00C0519E047F60011CFF66C4145F600220144C0F278
:20C24000622291420ED341F60071CFF60A2108444FF27F01C0F2FA2188428CBF45F01005D5
:20C2600045F0040520680021056120464FF4004200F07AFA48B1204601210125FFF759FC30
:20C2800084F84450284603B0F0BDFF20FFF7C0FD6068002850D000F08FFC054602AE41F235
:20C2A000893700BF20460121324600F0F3F800F083FC401BB84233D29DF808004007F1D5B1
:20C2C000204600214FF4805200F04EFA0028D2D100F072FC054602AE41F2893720460121EB
:20C2E000324600F0D7F800F067FC401BB84217D29DF808008006F1D502AA2046102100F05A
:20C30000C9F80028B7D102984FF4006101EA40218007E16054BF4FF480400020A0601BE029
:20C32000204601210125FFF704FC002084F8445084F845000325A5E7D4E90201400840EA82
:20C34000D10082B22046002100F00EFA002892D140F6FF70FFF75CFD204600210025FFF738
:20C36000E8FB012084F844008CE7F0B587B0002743F630060297C4F202063068002540F0D0
:20C38000010030603068C4F2020500F00100029002980297306802AC40F002003060306861
:20C3A000214600F00200029002980297306840F004003060306800F00400029002980297B2
:20C3C000306840F010003060306800F0100002900298032005900220CDE903070B200690D6
:20C3E00086200290284600F00DFB4FF46050029005F58060214600F005FB3220029005F50B
:20C400000060214600F0FEFA0120CDE90307042005F58055029028462146059700F0F2FABA
:20C4200028460421002200F0C2FB0A20FFF7F0FC28460421012200F0BAFB6420FFF7E8FCD5
:20C440004EF23D40CEF20000102101703D2000F0DBFD0197306840F000703060306800F0B0
:20C460000070019001980197306840F080603060306800F08060019001980197306840F060
:20C4800000603060306800F000600190019807B0F0BD000070B5044690F84400822804BF8E
:20C4A000022070BD822084F84400206815460269238A02F01C0203F01F0361F38A1242EA8F
:20C4C000C3210131016100F077FB064600F074FB801BB0F5803F0BD220680169C907F5D173
:20C4E000406980B22860012084F84400002070BD012084F84400002084F84500032070BD99
:20C500004EF6E070C2F201000068012120F05EB910B582B0044690F8450001284FF00200A9
:20C520004DD0012184F8451084F84400002000902068016841F008010160006844F6D35129
:20C54000009040F22400C2F200000268C1F26201A2FB01235A0A019200BF019A531E002A14
:20C560000193F9D1009A23681A60002200921A6842F004021A601A6800920068A0FB0101BD
:20C58000480A019000BF0198411E00280191F9D10098216808602046FFF79EFA206841F245
:20C5A0001801425842F400524250425842F002024250012084F84400002084F8450002B0D8
:20C5C00010BD000070B582B0044690F8450001284FF002004DD0012184F8451084F84400E6
:20C5E000206841F21801425840F2240522F4005242504258C2F2000522F00202425000215C
:20C600000091016844F6D35621F0040101600068C1F2620600902868A0FB0601480A01901E
:20C6200000BF0198411E00280191F9D10098216808602046FFF750FA0020009020680168EF
:20C6400021F008010160006800902868A0FB0601480A019000BF0198411E00280191F9D117
:20C66000009821680860012084F84400002084F8450002B070BD000070B590F84520012A53
:20C680004FF002026CD0002980F8442043D0C26A1368002B5DD4B1F5C06F3FD94AF6AB2305
:20C6A000CAF6AA23A1FB033C4FEA9C2303EB4304A1EB4424002C4FF0010E18BF0EEB9C23E8
:20C6C000B3F1010C2AD04FF4D05403FB04114FF4C064A1F5D05E6FF35F3E0021156825F058
:20C6E0004055156019B9156845F0805515608C45546005D1156845F000551560C2F804E0ED
:20C700001568D66845F00045013115608B423246C662E3D10FE0012101221CE013686FF30F
:20C720005F3143F04053D46813605160116841F000411160C462016841F2040211440A6957
:20C7400052074FF0000242BF04230B610A60012101E00122122180F84410002180F845102E
:20C76000104670BD70470000B0B5044690F84400422804BF0220B0BD422084F8440020689E
:20C7800092B20369258A03F01C0305F01F0561F38A1343EAC52103314261016100F00CFADC
:20C7A000054600BF00F008FA401BB0F5803F08D220680069C007F5D1012084F84400002065
:20C7C000B0BD012084F84400002084F845000320B0BD00002DE9F04381B04CF2E078C2F2D6
:20C7E000010898F81820012A01D1022661E00546012088F818004CF250308946FFF7D4FAAD
:20C800000646002852D14FF0FF30C9F800002868012827D143F61044C4F2020468682969F6
:20C820002268012822F4407222604FF4004208BF04220328206808BF48F2040210432060FC
:20C840000802216880B2084340F4803020604CF25030FFF7A9FA0646206848F2040188432F
:20C86000206021E0D5E902703844874218D243F61044C4F2020400BF297C3846FFF7FDF9C1
:20C880004CF25030FFF790FA2168064621F0FA0020603EB9D5E90201013708448742EBD337
:20C8A000002601E0C9F80070FFF711FA002088F81800304601B0BDE8F08343F61041C4F208
:20C8C0000201086840F0004200200A6070472DE9F04381B04CF2E074C2F201049046227EF7
:20C8E000012A01D1022073E00746012020764CF250301E460D46FFF757FA002866D143F66E
:20C900001049022FC4F2020915D0012F28D0E7BBD9F8000020F44070C9F80000D9F80000F6
:20C92000C9F80000D9F8000040F00100C9F8000085F8008040E0D9F8000020F44070C9F800
:20C940000000D9F8000040F40070C9F80000D9F8000040F00100C9F80000C5F800802BE096
:20C96000D9F8000020F44070C9F80000D9F8000040F48070C9F80000D9F8000040F00100A9
:20C98000C9F80000A5F8008016E0D9F8000020F44070C9F80000D9F8000040F44070C9F8F7
:20C9A0000000D9F8000040F00100C9F80000C5F80080BFF36F8F6E604CF25030FFF7F4F958
:20C9C000D9F8001021F00101C9F800100021217601B0BDE8F08343F60440C4F20200C168B3
:20C9E000B1F1FF3FC4BF0020704740F22311C4F26751016048F6AB11CCF6EF510160C06843
:20CA0000C00F70472DE9F04F82B000F13E4242F2004502F1FF77C4F202050A2243F6004E46
:20CA20004FEAB726A84208BF0922C4F2010E092E38BF4FEAB7220125002600274FF0000845
:20CA4000009200BF0C6805FA08F914EA090F00F09D80D1F804B003220BF0030CACF10104A0
:20CA6000B240012C6FEA020A10D88268CC6802EA0A02B440224382604268CBF3001422EA71
:20CA8000090204FA08F42243426005E0BCF1030F02D14FF0030C20E0C2688C6802EA0A02AF
:20CAA000B4402243BCF1020FC26016D16FF0030202EA58020244D2F820C007F01C050F2372
:20CAC0000C69AB402CEA030304FA05F52B431362D1F804B001250BF0030C02680CFA06F3E9
:20CAE00002EA0A021A431BF4403F02604ED0002243F644030192C4F202031A684FF6084CC8
:20CB000042F480421A601A68CFF6FF7C02F480420192019A28F00302724452F80C3007F0AB
:20CB20000C050F24AC40A343009C04FA05F52B4342F80C30DEF800204B6842EA0905DC03A5
:20CB400058BF22EA0905CEF80050DEF804209C0342EA090558BF22EA0905CEF80450DEF89A
:20CB60000820DC0242EA090543F60C4458BF22EA0905CEF80850C4F2010422689B0242EA8F
:20CB8000090558BF22EA09052560012508F101080437B8F1100F06F102067FF453AF02B080
:20CBA000BDE8F08F0069084018BF01207047002A08BF0904816170474FF2DC50C2F2010038
:20CBC0000068704748B310B5044690F8350028B9002084F83400204600F021F8022084F8B1
:20CBE0003500002040F200412062E0616062A063E086C5F206010A68236822F030021A4323
:20CC00000A600A6822F400520A604FF48071A185012184F83510E06310BD0120704780B50C
:20CC200082B00020019043F63400C4F202000168002241F0200101600068052100F0200010
:20CC400001900198502000F0F1F9502002B0BDE8804000F0D9B940F628104FF2DC51C2F2C7
:20CC60000000C2F2010100780A6810440860704780B543F60040C4F20200016841F400712C
:20CC80000160016841F480610160016841F480710160032000F0F5F90F2000F004F800F057
:20CCA0003FF8002080BD80B582B00020019043F64000C4F20200016841F001010160006832
:20CCC00000F001000190019800F099FA4DF683614000C4F21B31A0FB01014FF0FF3000EB57
:20CCE00091400C21C4F20001C8614FF47A700862086840F0010008604FF08040016841F01D
:20CD0000050101604EF20010CEF20000A02180F81C134FF080510160002002B080BD0000B4
:20CD20002DE9F04F91B043F64009C4F20209D9F8340043F2D858C2F20008C8F80000D9F863
:20CD4000340043F2401A40F08070C9F8340098F80320C2F2000A9CA15046FBF725FDD8F8D3
:20CD60000070B8010CD55046FCF79CF944F64272C2F652420AEB00014AF800200020087160
:20CD800078010CD55046FCF78DF944F25012C2F644420AEB00014AF800200020087138012A
:20CDA0000CD55046FCF77EF944F65072C2F652420AEB00014AF8002000200871F8000CD580
:20CDC0005046FCF76FF944F25362C2F654420AEB00014AF8002000200871B8000CD5504609
:20CDE000FCF760F944F25742C2F647420AEB00014AF800200020087178000CD55046FCF704
:20CE000051F945F25772C4F244720AEB00014AF800202C208880B7F1FF3F0CDC5046FCF759
:20CE200041F945F24C02C5F257220AEB00014AF800202C2088805046FCF734F929212AF835
:20CE4000001047F61020C1F6FF7001798279C379077A457A867AC47A90F800E090F802C04E
:20CE600090F805B047F66C2001F0FC01C2F20000017002F00F0101EB810103F00F0202EB38
:20CE8000410107F00F0202EB820205F00F0303EB4202642311FB032106F00F0202EB82026F
:20CEA00004F00F0404EB420201FB032180F801E0C1F3034242EA0B12F032C2700A0A01F024
:20CEC000FE010271417100F802CF04F071FF48F64831C2F20001002708600097D9F800009E
:20CEE000022440F08050C9F80000D9F80000012600F08050009000984FF4803001904FF4A4
:20CF000080000790322008904FF4A870CDE9090407200B9068460096069400F0B7F90F2083
:20CF20000CA991C14FF4A0500F904FF4805010900CA8052100F0B6F804F0D0FB012004F019
:20CF40005EFC002004F046FC04F0B9FC03F004FDD8F800101EA05246FBF71AFC02F0BDFE99
:20CF600004F090FD04F04AFB04F07DFA03F063FF02F005FF03F03BFB04F0BEFE02F0DDFF9A
:20CF800003F080FD03F03EF802F074FE0EF054FA43F20000C4F2000045F2555101600621F8
:20CFA000416040F6FF7181604AF6AA21076001604CF6CC41016043F28010C2F200000670D7
:20CFC00011B0BDE8F08F00BF25303258682800002E2E0D0A42535020496E69742047534D2B
:20CFE00020646F6E653A204C6173742E4353523D2530385868202D3E20426F6F7443617585
:20D0000073653D257300000000280ED4C1B200F01F00012202FA00F04EF20012CEF20002B4
:20D0200042EAD10121F003010860704710B54EF60C5CCEF2000CDCF80030C3F3022E8EF019
:20D040000704042C28BF0424BEF103034FF0FF3E0EFA04F438BF0023A14399400EFA03F380
:20D060009A43114300F00F0200F160430901043A03F564436244002848BF02F10C031970A3
:20D0800010BD4EF60C51CEF200010A684FF6FF031A4060F30A2242F0806040F0FD700860B8
:20D0A000704700002DE9F041002878D043F60008C4F202080446D8F800040D4600F00F0091
:20D0C000884207D288F80054D8F8000400F00F00A84264D12068810717D5410705D5D8F8F9
:20D0E000081041F4E051C8F80810010705D5D8F8081041F46041C8F80810D8F80810A26870
:20D1000021F0F0011143C8F80810C0073FD1D8F8000400F00F00A84207D988F80054D8F8C9
:20D12000000400F00F00A84239D12068410707D5D8F80810E26821F4E0511143C8F80810A8
:20D14000000708D5D8F80800216920F4604040EAC100C8F8080000F065F8D8F808104EF6A9
:20D16000EC52C1F30311C0F60202515C40F2240220FA01F140F62C10C2F200000068C2F29C
:20D1800000021160FFF78FFD0020BDE8F0816068811E022906D2D8F80010890108D4012093
:20D1A000BDE8F08101281FD1D8F800108903F6D5D8F8081021F003010843C8F80800FFF703
:20D1C000FBFC064641F28837D8F80800616800F00C00B0EB810F9AD0FFF7EEFC801BB84273
:20D1E000F2D90320BDE8F081D8F800108907D6D5DEE740F22400C2F200000068704740F2F0
:20D20000240043F60801C2F20000C4F20201006809684EF6FC52C1F38221C0F60202515C12
:20D22000C840704710B543F60404C4F20204606800F00C0008280AD0042819BF42F2004027
:20D24000C0F2F4004FF28000C0F2FA2010BD20682168236849024FF28001C0F2FA2100F068
:20D260003F02C3F388105CBF42F20041C0F2F401A1FB00010023FBF705FA21680222C1F3D6
:20D28000014102EB4101B0FBF1F010BD2DE9F04182B0002866D00446007843F60006C00725
:20D2A000C4F202060BD0B06800F00C00042840F098803068800302D56068002852D02078B1
:20D2C00080071AD5B06810F00C0F09D0B06800F00C00082840F09F807068400200F19B8013
:20D2E0003068800702D5E06801283BD13068216920F0F80040EAC10030602078000733D470
:20D300002078400747D4A56955B3B06800F00C00082840F0B380012D24D07068E16900F41E
:20D3200080028A421ED1216A00F03F028A4219D147F6C071626A0140B1EB821F12D1A16A98
:20D340004FF6FF73C903994300F44032A1F580318A4207D1E16A00F07060B0EB016F01D135
:20D360000020F1E00120EFE06069002840F20000C4F2472072D00121C0F8801EFFF71CFCC4
:20D38000054600BF706F8007BAD4FFF715FC401B0228F7D9D7E0306C10F080580AD100200D
:20D3A0000190306C40F080503064306C00F080500190019847F20007C4F200073868C005C4
:20D3C0003ED4386840F480703860FFF7F5FB05463868C00534D4FFF7EFFB401B0228F7D90C
:20D3E000B1E0B06800F00C00082803D1706840023FF55FAF6068B0F5803F07D0B0F5A02FB1
:20D4000040F08B80306840F480203060306840F4803030608BE0E068002851D00020C4F2F7
:20D42000472001210160FFF7C7FB0546306880073FF55CAFFFF7C0FB401B0228F6D982E03A
:20D44000A068012805D005284ED1306F40F004003067306F40F0010030674FE00021C0F8A1
