:0400000050EF0FF0BE
:08000800046ED8CF05F0E0CF33
:1000100006F00001E9CF0CF0EACF07F0E1CF08F0DD
:10002000E2CF09F0D9CF0AF0DACF0BF0F3CF12F01C
:10003000F4CF13F0FACF14F0F5CF15F0F6CF16F099
:10004000F7CF17F000C00EF001C00FF002C010F0A3
:1000500003C011F09DA030EF00F09EB006EF01F05C
:100060009DAA36EF00F09EBAEDEF00F00EC000F052
:100070000FC001F010C002F011C003F00CC0E9FF86
:1000800007C0EAFF078E08C0E1FF09C0E2FF0AC00F
:10009000D9FF0BC0DAFF12C0F3FF13C0F4FF14C086
:1000A000FAFF15C0F5FF16C0F6FF17C0F7FF0450A2
:1000B00006C0E0FF05C0D8FF1000C80FF66E000EA6
:1000C000F7220900F55012000100040008000C009E
:1000D0000F00130016001A001D0021002500280043
:1000E0002C002F00330037003A003E00410045004D
:1000F00049004C005000540057005B005F00630053
:1001000066006A006E007200750079007D00810053
:10011000850088008C009000940098009C00A0004E
:10012000A400A800AC00B000B400B800BD00C1003D
:10013000C500C900CD00D200D600DA00DF00E30020
:10014000E800EC00F100F500FA00FF0003010801EF
:100150000D01120117011C01210126012B013001A3
:1001600035013A01400145014B01500156015B0147
:10017000610167016D01730179017F0186018C01C5
:1001800093019901A001A701AE01B501BC01C40111
:10019000CB01D301DB01E301EB01F301FC0105021B
:1001A0000E02170220022A0234023E0249025402C1
:1001B0005F026B027702840290029E02AC02BB02D5
:1001C000CA02DA02EA02FC020E03220337034C03DE
:1001D00064037D039803B503D5039EAAFED7AECF73
:1001E0001FF1010100019551952B036A630FE96E20
:1001F000000E0320EA6E1FC1EFFF9551320801E2A5
:10020000956B216A1E8C9E9A36EF00F0D10ECF6E50
:100210004E0ECE6E0000010E1926D8B01A2AD8B4A0
:100220001B2AD8B41C2A1E80CF2BD8B4D02BD05375
:1002300003E1CF51090804E2D06BCF6B1E841E820C
:10024000D12BD8B4D22BD25303E1D151630803E2AE
:100250001E86D26BD16BD32BD8B4D42BD4510208C9
:100260000DE2FF0A03E1D351E70808E21F5203E061
:100270001F2E01D0FF001E88D46BD36B26BE0AD080
:10028000265203E12550000805E22550D8B4260681
:10029000250602D0929889989E9036EF00F0DB6B8D
:1002A000DA51DB5D1BE2DB51D825016E000ED9214E
:1002B000036E0150E96E03C0EAFFDB51D725DE6F04
:1002C000F2CFDFF0F29EDEC0A9FFA69CA69EA6801C
:1002D000A850DFBFF28EEF6EDB2BE2D712000101D8
:1002E0001A6B19511A5D27E21A5116251C6F1A5103
:1002F0001725016E000E1821036E0150E96E03C030
:10030000EAFFEFCF1DF1F250006EF29E1CC1A9FF73
:100310001DC1A8FFA69CA69EA6840F01550EA76E20
:10032000AA0EA76EA682A6B2FED7A6940050F2121D
:1003300001011A2BD6D71B6B1A6B19511A5D1FE2DC
:100340001A511725016E000E1821036E0150E96E37
:1003500003C0EAFFEFCF1CF11A5116251D6FF2CF33
:100360001EF1F29E1DC1A9FFA69CA69EA680A850C4
:100370001EBFF28E1C5D01E01B2B1A2BDED71B5318
:1003800004E0000E016E03D002D0010E016E0001E8
:100390001200010EEA6E140EE96EEF500EE00F0E21
:1003A000016E006A002EFED7012EFBD78F0E006E65
:1003B000002EFED70000EF2EF2D71200F2CFD5F0BC
:1003C000F29EA96AA69CA69EA680A850D5BFF28ED2
:1003D000D66FF2CFD7F0F29E010EA96EA69CA69E14
:1003E000A680A850D7BFF28ED86FD6C0DAF0D8C09A
:1003F000D9F0D951020803E1DA51020828E0F2509D
:10040000006EF29EA96A020EA86EA69CA69EA68405
:100410000F01550EA76EAA0EA76EA682A6B2FED732
:10042000A6940050F212F2CF00F0F29E010EA96ED7
:10043000020EA86EA69CA69EA684550EA76EAA0EB6
:10044000A76EA682A6B2FED7A6940050F2120001B3
:100450000DEF03F0C150C00BC16EC050C00B0609B8
:10046000C06EC08EC280300EC0129698C69A949EFE
:1004700093809392010EC66E000EC76ED180800EDF
:10048000D56E850ECD6ED10ECF6E4E0ECE6E0000A7
:10049000000ECA6E000ECB6EB16A070EB46E92509B
:1004A000926E270E006E002EFED700D0B450A19C95
:1004B000B56AEF0E926EFF0E936EBF0E946EF80E3D
:1004C000956EFF0E966E95908C8095928C82929888
:1004D00089986D966F86206A270ED56F200ED76F8C
:1004E000D96BD5C0D8F0160EDA6FD9DE3D0ED56FB8
:1004F000400ED76FD96BD5C0D8F0080EDA6FCFDEBB
:10050000273C29D0283C27D0010E286EF40E276EF8
:10051000070E2A6E580E296E070E2C6E580E2B6E83
:10052000070E2E6E580E2D6E070E306E580E2F6E63
:10053000070E326E580E316E3C6A030E3B6E270E6C
:10054000D56F200E0101166F186BD5C017F1160E6E
:10055000196F0001C4DE3D3C1ED03E3C1CD0010E94
:100560003E6EFC0E3D6E010E406EFC0E3F6E010EA7
:10057000426EFC0E416E010E446EFC0E436E3D0E4B
:10058000D56F400E0101166F186BD5C017F1080E1C
:10059000196F0001A4DE92988988320E0101146F50
:1005A0000001F7DE92988998320E0101146F000164
:1005B000F0DE92988988320E0101146F0001E9DEA5
:1005C00092988998320E0101146F0001E2DE929830
:1005D0008988320E0101146F0001DBDE9298899840
:1005E000320E0101146F0001D4DE92988988320E18
:1005F0000101146F0001CDDE92988998320E01013D
:10060000146F0001C6DE92988988C80E0101146F2C
:100610000001BFDE92988998D1D6A0EF0FF0959493
:100620008C94A2EF0FF001011A6919691B6B185124
:100630001B5D1CE21B511625E96E000E1721EA6EA8
:10064000EF50191B080E1C6F1C530EE01951010BC3
:100650001D6FD8901A3319331D2D04D0010E191BAC
:10066000A00E1A1B1C07F0D71B2BE1D719C101F0F4
:100670001AC102F00001120095948C849EA8FED746
:1006800095948C84010115C1ADFF0000ACA2FED78A
:1006900095948C9400011200236A226A63C096F03C
:1006A000958E000E83AE010E0101146F958C000E25
:1006B00083AC010E006ED890003600501413958A5A
:1006C000000E83AA010E006E00360036FC0E0016E6
:1006D000005014139588000E83A8010E006E00369A
:1006E00000360036F80E001600501413948A000EDF
:1006F00082AA010E006E003AF00E0016005014118E
:100700000001965DD8A42FD364C097F09751030AD7
:100710000AE0660AD8B4D3D0010AD8B489D1250A30
:10072000D8B47AD21AD365C0D6F066C0D5F067C007
:10073000D8F068C0D7F0D890D735026ED83502C04F
:10074000DBF00101176B630E166F060E186F0001C8
:100750006ADF02C010F101C00FF16AC003F06951F5
:1007600001010F5D03E10350105D04E0000E016E16
:10077000FDD21BD00001D55302E1D65306E0000E96
:10078000016E0101F3D211D00001D890D7350101DB
:10079000146F0001D8350101156F155303E1145191
:1007A000200803E2000E016EE1D20001D55371E191
:1007B000D6536FE1050EDB25DC6F958E000E83AE00
:1007C000010E0101146F958C000E83AC010E006EBA
:1007D000D890003600501413958A000E83AA010E9B
:1007E000006E00360036FC0E00160050141395887B
:1007F000000E83A8010E006E003600360036F80E9B
:10080000001600501413948A000E82AA010E006E86
:10081000003AF00E0016005014110001DD6F030EB7
:10082000DE6FDBC0DFF0EA6AE00EE96EE26A450ED9
:10083000E16EDB51016E04E0E6CFEEFF012EFCD746
:10084000030EDB250101146F176BDD0E166F14C14B
:1008500018F10001E8DE02C010F101C00FF1030E33
:10086000DB25036ADD0FE96E000E0320EA6E01014D
:100870000FC100F000C0EFFF040E0001DB25036A8A
:10088000DD0FE96E000E0320EA6E01011051EF6EDC
:100890000001040E0101146F00017BDD1D6ADC51B3
:1008A0001D5C0CE2036A1D50DD0FE96E000E032093
:1008B000EA6EEFCF15F1E0DE1D2AF1D753D265C005
:1008C000D6F066C0D5F00101126B67C011F1050EBC
:1008D0001125146F000E1221156F176B630E166F22
:1008E00014C118F100019FDE02C010F101C00FF128
:1008F000690E01011125E96E000E1221EA6EEFCF9B
:1009000003F0680E1125E96E000E1221EA6EEFCF9A
:1009100019F119510F5D03E10350105D03E0000E62
:10092000016E24D2EA6A270EE96EE26A680EE16E71
:1009300012C102F011C101F0015202E0022A02D0FC
:10094000025206E0E6CFEEFF012EFCD7022EFAD7C8
:10095000270E146FD5C016F1186B176F160E196F8E
:100960000001BDDC1E8E070EDC6F958E000E83AE7F
:10097000010E0101146F958C000E83AC010E006E08
:10098000D890003600501413958A000E83AA010EE9
:10099000006E00360036FC0E0016005014139588C9
:1009A000000E83A8010E006E003600360036F80EE9
:1009B000001600501413948A000E82AA010E006ED5
:1009C000003AF00E0016005014110001DD6F650EA4
:1009D000DE6FD6C0DFF00001D5C0E0F011C1E1F05C
:1009E0000101176BDD0E166F050E186F00011BDE7F
:1009F00002C010F101C00FF10FC1E2F0000110C1FF
:100A0000E3F00001040E0101146F0001C2DC1D6A55
:100A1000DC511D5C0CE2036A1D50DD0FE96E000E17
:100A20000320EA6EEFCF15F127DE1D2AF1D79AD108
:100A300065C0D6F066C0D5F00101126B67C011F138
:100A4000176B630E166F050E186F0001ECDD02C008
:100A500010F101C00FF169C003F0685101010F5D91
:100A600003E10350105D04E0000E016E7FD114D04D
:100A700011510001D5250101146F12510001D62139
:100A80000101156F000808E2FF0A03E11451000894
:100A900003E2000E016E6AD1136B1351132B036A2C
:100AA000DD0FE96E000E0320EA6E958E000E83AE18
:100AB000010E166F958C000E83AC010E006ED8905F
:100AC000003600501613958A000E83AA010E006EA0
:100AD00000360036FC0E0016005016139588000EE6
:100AE00083A8010E006E003600360036F80E0016A0
:100AF00000501613948A000E82AA010E006E003A6E
:100B0000F00E001600501611EF6E1351132B036AEE
:100B1000DD0FE96E000E0320EA6E640EEF6E1351D6
:100B2000132B036ADD0FE96E000E0320EA6E00014D
:100B3000D6C0EFFF01011351132B036ADD0FE96EDD
:100B4000000E0320EA6E0001D5C0EFFF0101135132
:100B5000132B036ADD0FE96E000E0320EA6E11C14C
:100B6000EFFF1D6A125303E111511D5C1BE213518B
:100B7000132B036ADD0FE96E000E0320EA6E1D5091
:100B80000001D5250101166FF2CF17F1F29E16C1B3
:100B9000A9FFA69CA69EA680A85017BFF28EEF6E56
:100BA0001D2AE0D7176BDD0E166F13C118F1000177
:100BB0003ADD02C010F101C00FF101011351132BF6
:100BC000036ADD0FE96E000E0320EA6E0FC1EFFF2E
:100BD0001351132B036ADD0FE96E000E0320EA6E3A
:100BE00010C1EFFF040E146F0001C9EC01F01D6A83
:100BF000010113511D5C0EE2036A1D50DD0FE96E09
:100C0000000E0320EA6EEFCF15F1000135DD1D2A3D
:100C1000EFD701010001A6D065C0DAF066C0D9F0B7
:100C2000D92D9AD0DA53D8A497D00101136B135160
:100C3000132B036ADD0FE96E000E0320EA6E958E1A
:100C4000000E83AE010E166F958C000E83AC010E64
:100C5000006ED890003600501613958A000E83AAB5
:100C6000010E006E00360036FC0E00160050161302
:100C70009588000E83A8010E006E003600360036FF
:100C8000F80E001600501613948A000E82AA010E68
:100C9000006E003AF00E001600501611EF6E135160
:100CA000132B036ADD0FE96E000E0320EA6E410E7E
:100CB000EF6E1351132B036ADD0FE96E000E032054
:100CC000EA6E0001DAC0EFFF01011351132B036A32
:100CD000DD0FE96E000E0320EA6E0001D9C0EFFFC0
:100CE0000101176BDD0E166F13C118F100019BDCBB
:100CF00002C010F101C00FF101011351132B036A5F
:100D0000DD0FE96E000E0320EA6E0FC1EFFF1351F5
:100D1000132B036ADD0FE96E000E0320EA6E10C18B
:100D2000EFFF040E146F0001C9EC01F01D6A010110
:100D300013511D5C0EE2036A1D50DD0FE96E000EBB
:100D40000320EA6EEFCF15F1000196DC1D2AEFD7E4
:100D50000101020E1F6E000105D0000E016E01019F
:100D600005D0000103D0000E016E01010001C0EFAB
:100D70000FF0D8B203D0EA6AEE0EE96E006A016A9B
:100D8000026A036AEE6BEF6BF06BF16BED51EC11E5
:100D9000EB11EA112CE0200EF26FD890E637E7371E
:100DA000E837E937EE37EF37F037F137ED51F15DDE
:100DB00008E1EC51F05D05E1EB51EF5D02E1EA5134
:100DC000EE5D0FE3EA51EE5FEB51D8A0EB3DEF5F34
:100DD000EC51D8A0EC3DF05FED51D8A0ED3DF15FB6
:100DE000D8800036013602360336F22FD6D7EEC051
:100DF000EFFFEFC0ECFFF0C0ECFFF1C0ECFF120022
:100E0000E051E203F3CF01F0F4CF00F0E303F3503D
:100E10000026E151E203F3500020026E65EF07F077
:100E2000016A026A006A036AE55102E1E45118E0CE
:100E3000100EE66FD890E237E33700360336E551FF
:100E4000035C02E1E451005C07E3E451005ED8A0DA
:100E50000306E551035ED88001360236E62FEAD755
:100E600071EF07F0EE6BEF6B010EF06FDA6AD96A83
:100E7000F36BE60EF26FEA6AEA0EE96EF3C0E2FF88
:100E8000F2C0E1FFF0C0F1F0D890E550EE02F3506F
:100E9000EE23F450EF23F12FF7D7EEC0DEFFEFC0C3
:100EA000EEF0EF6BD8B0EF2BF22BD8B4F32BF02B86
:100EB000F0510508E0E186EF07F028C0E1F027C017
:100EC000E0F0E36B3B0EE26F9BD702C0E1F001C0A4
:100ED000E0F002C0E3F001C0E2F0E56B2F0EE46F3A
:100EE0009FD702C0E1F001C0E0F0DBC0E3F0DAC060
:100EF000E2F0E96BE86BDBC0E7F0DAC0E6F0ED6B3F
:100F0000EC6BDDC0EBF0DCC0EAF0ACD703C0E5F081
:100F100002C0E4F001C0E3F000C0E2F0D89203C0E8
:100F2000E9F002C0E8F001C0E7F000C0E6F0ED6BC8
:100F3000EC6B050EEB6FB10EEA6F1BDF0050E05D4E
:100F4000DE6F0150E159DF6FDF5101080BE2FF0A4C
:100F500003E1DE51580806E2580E016E020E026EE1
:100F60000FD00AD0DF5308E1DE51630805E3640EB9
:100F7000016E000E026E04D0DEC001F0DFC002F090
:100F800012008E0E006EEBC001F0EAC002F0036AA0
:100F9000015209E102C001F0026A080E005E01522E
:100FA00002E1006A08D0D89001BE04D002360136B2
:100FB0000006F9D7019E1200EE51D8B471D0006E30
:100FC000F251D8B46DD0002604E3810E002668E209
:100FD00004D07F0E005E64E363E0EFC0F6F0F351EF
:100FE000F61BEF8FF38FF151F503F4CFF8F0F051CA
:100FF000F403F4CF03F0F3CFF7F0F503F350F82741
:10100000F450F723000E0322F151F403F350F827B4
:10101000F450F723000E026A03220222EF51F50377
:10102000F350F727F4500322000E0222EF51F4038D
:10103000F3500326F4500222000E016A0122F151FE
:10104000F303F350F727F4500322000E022201228B
:10105000F051F303F3500326F4500222000E012254
:10106000EF51F303F3500226F4500122002A01BE8F
:1010700005D0F7370336023601360006000EF7AF0B
:101080000AD0032A02220122015005E1025003E1A5
:10109000035001E1002AF6BF018EF6AF019E04D095
:1010A000006A016A026A036A12008E0E006EEFC0C7
:1010B00001F0EEC002F0036AEFAF05D0011E021E80
:1010C000022A01E1012A015209E102C001F0026A8B
:1010D000080E005E015202E1006A0AD0D89001BEFB
:1010E00004D0023601360006F9D7EFBF01D0019EC9
:1010F0001200EE51D8B4A5D0FA6FF251D8B4A1D0F5
:10110000FA5F05E37F0EFA27D8B09BD006D0810E98
:10111000FA5FD8A096D0D8B494D0FAC000F0016A93
:10112000026A036AF96BEFC0F8F0F88FF0C0F7F0CD
:10113000F1C0F6F0190EFA6FF551F65F0DE2010EEF
:10114000F75F0AE2F85F08E2F95F06E2F92BF82B95
:10115000F72BF551F62728D0F451F75F12E2010E74
:10116000F85F0FE2F95F0DE2F92BF82BF451F72746
:10117000F551F62719E3F72B17E1F82B15E1F92BB9
:1011800013D0F3518009F85F0EE2010EF95F0BE214
:10119000F92BF3518009F827F451F727E9E3F82BED
:1011A000E7E1F92BE5D70380FA2F01D00BD0D890D7
:1011B000F637F737F837F937D89003360236013665
:1011C000FB37BAD7FBA106D0D890013202320332E6
:1011D000FB3302D0000635E0FBBF1ED0D890F637B7
:1011E000F737F837F937F551F65F07E2010EF75F89
:1011F00004E2F85F02E2F95F1AE3F451F75F05E2F7
:10120000010EF85F02E2F95F12E3F3518009F85F23
:1012100003E2010EF95F0BE3032A09E1022A07E169
:10122000012A05E1002A0DE0013202320332EFC04B
:10123000FAF0F351FA1BFAAF02D0018E06D0019EEC
:1012400004D0006A016A026A036A12008E0E006E00
:10125000EA51005EEBC002F0ECC001F0028E0052D9
:1012600009E0D890025202E1015204E00232013258
:10127000002EF7D7EBAF05D0011E021E012AD8B40D
:10128000022A1200E3C0EBF0E2C0EAF07ADE03C00B
:10129000E7F002C0E6F001C0E5F000C0E4F0E05184
:1012A000DE5D006EE151DF5900C0E8F0E96FF16BDF
:1012B000F06B200EEF6F810EEE6FE7C0F5F0E6C029
:1012C000F4F0E5C0F3F0E4C0F2F076DE03C0EDF038
:1012D00002C0ECF001C0EBF000C0EAF0E9C0EFF0B2
:1012E000E8C0EEF0E2DEEDC0F1F0ECC0F0F0EBC0F3
:1012F000EFF0EAC0EEF003C0F5F002C0F4F001C078
:10130000F3F000C0F2F058DE03C0EDF002C0ECF0E4
:1013100001C0EBF000C0EAF003C0F1F002C0F0F051
:1013200001C0EFF000C0EEF0F56BC00EF46F7F0E61
:10133000F36F880EF26FDDDE03C0E7F002C0E6F067
:1013400001C0E5F000C0E4F0E7C0EDF0E6C0ECF06D
:10135000E5C0EBF0E4C0EAF079DF02501200800E45
:10136000D8B2ED1BF26BF36BE9C0F1F0ED51F11B5C
:10137000E851D8B4DCD0F06F006EEC51D8B4E0D0B6
:10138000F05FD8B481D03DE3EDC0F6F0F68FEEC04B
:10139000F5F0EFC0F4F0F36BD890F633F533F43397
:1013A000F333F02FF8D7F1AF03D0F281DDD0F29113
:1013B000F091F289EA6AEB0EE96EE9D0F299F1BF99
:1013C0000AD0F0A113D0F633F533F433F333002A07
:1013D000D8B4C5D00BD0F6BF0CD0D890F337F437C3
:1013E000F537F6370006D8B4BAD0F5D7F28D6BD002
:1013F000F29DE9C0F1F0E9AF02D0F68FA9D0F69FD7
:10140000A7D0ECC0F0F0ECC000F0E851F05FE9C00C
:10141000F6F0F68FEAC0F5F0EBC0F4F0F36BD8907D
:10142000F633F533F433F333F02FF8D7F1AF03D0BD
:10143000F2839AD0F293F091F28BEA6AEF0EE96EA2
:10144000A6D0F29BF1BF0AD0F0A113D0F633F5334A
:10145000F433F333002AD8B482D00BD0F6BF0CD0CB
:10146000D890F337F437F537F6370006D8B477D08D
:10147000F5D7F28F28D0F29FEDC0F1F0EDAF02D09A
:10148000F68F66D0F69F64D0EDC0F6F0F68FEEC012
:10149000F5F0EFC0F4F0F1AF04D0F69FF28564D020
:1014A000F295F36BF091EA6AEB0EE96E70D0F1BF42
:1014B0001CD0E9C0F1F0F0A106D0F633F533F433D7
:1014C000F333002A4CE0F3AF0BD0F42B09E1F52BFA
:1014D00007E1F62B05E1F633F533F433002A3FE05C
:1014E000F2BD86D7F2BFC7D71CD0800EF61BF6AF71
:1014F00004D03AD0EDC0F1F00AD0E9C0F1F0F653D3
:1015000006E1F55304E1F45302E1006A21D0F6BF8D
:1015100008D0D890F337F437F537F637002EF7D7E1
:101520001ED0F1AF02D0F68F13D0F69F11D0ECC0D1
:1015300000F0EDC0F6F0EEC0F5F0EFC0F4F008D02A
:10154000E8C000F0E9C0F6F0EAC0F5F0EBC0F4F056
:10155000F6C001F0F5C002F0F4C003F034D0006A28
:10156000016A026A036A2FD0F36BF41FF51FF61F9E
:10157000F31FF32B05E1F42B03E1F52B01E1F62B2F
:10158000F2B115D7F2B356D7F2B58AD7B3D7EF5029
:10159000F42705E3F52B03E1F62BD8B4F081ED52E7
:1015A000EF50F52703E3F62BD8B4F081ED52EF505E
:1015B000EFBE01D0800AF627D8B0F081F2B9FED68E
:1015C000F2BB3FD774D746EF0BF0DFC0EBF0DEC0C5
:1015D000EAF0D7DCF16BF06B200EEF6F810EEE6F4F
:1015E00003C0F5F002C0F4F001C0F3F000C0F2F067
:1015F000E3DCF16BC00EF06F7F0EEF6F880EEE6FC5
:1016000003C0F5F002C0F4F001C0F3F000C0F2F046
:1016100070DD03C0E3F002C0E2F001C0E1F000C001
:10162000E0F0DBC0EBF0DAC0EAF0ABDC03C0E7F0DF
:1016300002C0E6F001C0E5F000C0E4F0DDC0EFF06C
:10164000DCC0EEF032DDE3C0F1F0E2C0F0F0E1C06A
:10165000EFF0E0C0EEF003C0F5F002C0F4F001C01E
:10166000F3F000C0F2F0A8DCD882E7C0EBF0E6C0EF
:10167000EAF0E5C0E9F0E4C0E8F003C0EFF002C032
:10168000EEF001C0EDF000C0ECF069D603C0EDF063
:1016900002C0ECF001C0EBF000C0EAF0D7DD025070
:1016A0001200DB5308E1DA51690805E3000E016E10
:1016B000026E21D00AD0DB5303E1DA51F20805E2D1
:1016C000D50E016E030E026E16D06A0EDA5DDC6F67
:1016D000000EDB59DD6FD890DC35026EDD35036E10
:1016E000025003C0F7FF5DEC00F00900F5CF03F0F6
:1016F000016E03C002F012009482000E82B2010E4D
:10170000006ED8900034D86F9484000E82B4010E1D
:10171000D811D56FCE51D55D04E0CD6BD5C0CEF0DC
:101720000CD0CD2BCD513F0808E2CD6BCE513B18EC
:10173000030B456E3B50030B466E2C0E016EC250E0
:10174000C30B0110C26EC282C2B2FED7C35098272B
:10175000C4509923000E9A239B23016EC250C30BE1
:101760000110C26EC282C2B2FED7C3509C27C450C1
:101770009D23000E9E239F23040E016EC250C30BB7
:101780000110C26EC282C2B2FED7C350A027C4509D
:10179000A123000EA223A323080E016EC250C30B87
:1017A0000110C26EC282C2B2FED7C350A427C45079
:1017B000A523000EA623A7230C0E016EC250C30B57
:1017C0000110C26EC282C2B2FED7C350A827C45055
:1017D000A923000EAA23AB23100E016EC250C30B27
:1017E0000110C26EC282C2B2FED7C350AC27C45031
:1017F000AD23000EAE23AF23140E016EC250C30BF7
:101800000110C26EC282C2B2FED7C350B027C4500C
:10181000B123000EB223B323180E016EC250C30BC6
:101820000110C26EC282C2B2FED7C350B427C450E8
:10183000B523000EB623B7231C0E016EC250C30B96
:101840000110C26EC282C2B2FED7C350B827C450C4
:10185000B923000EBA23BB23240E016EC250C30B62
:101860000110C26EC282C2B2FED7C350BC27C450A0
:10187000BD23000EBE23BF23200E016EC250C30B3A
:101880000110C26EC282C2B2FED7C350C027C4507C
:10189000C123000EC223C323280E016EC250C30B06
:1018A0000110C26EC282C2B2FED7C350C427C45058
:1018B000C523000EC623C723300E016EC250C30BD2
:1018C0000110C26EC282C2B2FED7C350C827C45034
:1018D000C923000ECA23CB23CC2BCC51C708D8B0C8
:1018E000DDD2CC6BD8929BC0E9F09AC0E8F099C0E9
:1018F000E7F098C0E6F0ED6BEC6BEB6BC80EEA6FAF
:10190000B9EC06F003C09BF002C09AF001C099F058
:1019100000C098F0D8929FC0E9F09EC0E8F09DC04A
:10192000E7F09CC0E6F0ED6BEC6BEB6BC80EEA6F7A
:10193000B9EC06F003C09FF002C09EF001C09DF01C
:1019400000C09CF0D892A3C0E9F0A2C0E8F0A1C00A
:10195000E7F0A0C0E6F0ED6BEC6BEB6BC80EEA6F46
:10196000B9EC06F003C0A3F002C0A2F001C0A1F0E0
:1019700000C0A0F0D892A7C0E9F0A6C0E8F0A5C0CA
:10198000E7F0A4C0E6F0ED6BEC6BEB6BC80EEA6F12
:10199000B9EC06F003C0A7F002C0A6F001C0A5F0A4
:1019A00000C0A4F0D892ABC0E9F0AAC0E8F0A9C08A
:1019B000E7F0A8C0E6F0ED6BEC6BEB6BC80EEA6FDE
:1019C000B9EC06F003C0ABF002C0AAF001C0A9F068
:1019D00000C0A8F02AC0DBF029C0DAF099C0DDF021
:1019E00098C0DCF05DEC07F002C04AF001C049F09D
:1019F0002CC0DBF02BC0DAF09DC0DDF09CC0DCF029
:101A00005DEC07F002C050F001C04FF02EC0DBF0DB
:101A10002DC0DAF0A1C0DDF0A0C0DCF05DEC07F075
:101A200002C056F001C055F030C0DBF02FC0DAF034
:101A3000A5C0DDF0A4C0DCF05DEC07F002C05CF0F6
:101A400001C05BF032C0DBF031C0DAF0A9C0DDF0DC
:101A5000A8C0DCF05DEC07F002C062F001C061F0EC
:101A600028C048F027C047F0D892AFC0E9F0AEC018
:101A7000E8F0ADC0E7F0ACC0E6F0ED6BEC6BEB6B03
:101A8000C80EEA6FB9EC06F003C0AFF002C0AEF0CA
:101A900001C0ADF000C0ACF0D892B3C0E9F0B2C064
:101AA000E8F0B1C0E7F0B0C0E6F0ED6BEC6BEB6BCB
:101AB000C80EEA6FB9EC06F003C0B3F002C0B2F092
:101AC00001C0B1F000C0B0F0D892B7C0E9F0B6C024
:101AD000E8F0B5C0E7F0B4C0E6F0ED6BEC6BEB6B93
:101AE000C80EEA6FB9EC06F003C0B7F002C0B6F05A
:101AF00001C0B5F000C0B4F0D892BBC0E9F0BAC0E4
:101B0000E8F0B9C0E7F0B8C0E6F0ED6BEC6BEB6B5A
:101B1000C80EEA6FB9EC06F003C0BBF002C0BAF021
:101B200001C0B9F000C0B8F0ADC0DFF0ACC0DEF06D
:101B30003EC0E1F03DC0E0F028C0E3F027C0E2F095
:101B400042EC09F002C04CF001C04BF0B1C0DFF034
:101B5000B0C0DEF040C0E1F03FC0E0F028C0E3F0EC
:101B600027C0E2F042EC09F002C052F001C051F08F
:101B7000B5C0DFF0B4C0DEF042C0E1F041C0E0F03B
:101B800028C0E3F027C0E2F042EC09F002C058F0B0
:101B900001C057F0B9C0DFF0B8C0DEF044C0E1F0DA
:101BA00043C0E0F028C0E3F027C0E2F042EC09F0C7
:101BB00002C05EF001C05DF01EAE54D0ADC0DBF0DF
:101BC000ACC0DAF034C0DDF033C0DCF028C0DFF0A8
:101BD00027C0DEF0FADC02C03EF001C03DF0B1C02B
:101BE000DBF0B0C0DAF036C0DDF035C0DCF028C084
:101BF000DFF027C0DEF0E9DC02C040F001C03FF0BA
:101C0000B5C0DBF0B4C0DAF038C0DDF037C0DCF0CE
:101C100028C0DFF027C0DEF0D8DC02C042F001C0EF
:101C200041F0B9C0DBF0B8C0DAF03AC0DDF039C03D
:101C3000DCF028C0DFF027C0DEF0C7DC02C044F0D3
:101C400001C043F03D0ED86F400E0101166F186BB6
:101C5000D8C017F1080E196F00016FEC01F01E9E3D
:101C6000020E1F6ED892BFC0E9F0BEC0E8F0BDC042
:101C7000E7F0BCC0E6F0ED6BEC6BEB6BC80EEA6F07
:101C8000B9EC06F003C0BFF002C0BEF001C0BDF069
:101C900000C0BCF0D892C3C0E9F0C2C0E8F0C1C037
:101CA000E7F0C0C0E6F0ED6BEC6BEB6BC80EEA6FD3
:101CB000B9EC06F003C0C3F002C0C2F001C0C1F02D
:101CC00000C0C0F0D892C7C0E9F0C6C0E8F0C5C0F7
:101CD000E7F0C4C0E6F0ED6BEC6BEB6BC80EEA6F9F
:101CE000B9EC06F003C0C7F002C0C6F001C0C5F0F1
:101CF00000C0C4F0D892CBC0E9F0CAC0E8F0C9C0B7
:101D0000E7F0C8C0E6F0ED6BEC6BEB6BC80EEA6F6A
:101D1000B9EC06F003C0CBF002C0CAF001C0C9F0B4
:101D200000C0C8F0BF31036EBE31026EBD31016E1E
:101D3000BC31006E033202320132003200C0D8F0F2
:101D400001C0D9F001C0DBF000C0DAF0AADC02C0AB
:101D5000D7F001C0D6F0BC51030BD56FD551D625B5
:101D60004D6E000ED7214E6EC331036EC231026E2E
:101D7000C131016EC031006E0332023201320032D5
:101D800000C0D8F001C0D9F001C0DBF000C0DAF02B
:101D900088DC02C0D7F001C0D6F0C051030BD56F6C
:101DA000D551D625536E000ED721546EC731036E20
:101DB000C631026EC531016EC431006E033202328B
:101DC0000132003200C0D8F001C0D9F001C0DBF010
:101DD00000C0DAF066DC02C0D7F001C0D6F0C45112
:101DE000030BD56FD551D625596E000ED7215A6EEB
:101DF000CB31036ECA31026EC931016EC831006E3B
:101E0000033202320132003200C0D8F001C0D9F0F2
:101E100001C0DBF000C0DAF044DC02C0D7F001C042
:101E2000D6F0C851030BD56FD551D6255F6E000E85
:101E3000D721606F9B6B9A6B996B986B9F6B9E6BB6
:101E40009D6B9C6BA36BA26BA16BA06BA76BA66B2E
:101E5000A56BA46BAB6BAA6BA96BA86BAF6BAE6BDE
:101E6000AD6BAC6BB36BB26BB16BB06BB76BB66B8E
:101E7000B56BB46BBB6BBA6BB96BB86BBF6BBE6B3E
:101E8000BD6BBC6BC36BC26BC16BC06BC76BC66BEE
:101E9000C56BC46BCB6BCA6BC96BC86BC6EF0FF05D
:101EA000F86AD09E078EB886700EAF6E020EB06EC6
:101EB000A60EAC6E900EAB6E95948C94B886700E98
:101EC000AF6E020EB06EA60EAC6E900EAB6E959419
:101ED0008C94C150C00B0F09C16E070EB46E1E90DA
:101EE0001E921E941E961E981E9A1E9C1E9E07D021
:101EF0000540190008401F00404095000000000EFA
:101F0000F86E1E0EF76EF00EF66E0900F550006EBC
:101F1000000A13E00900F550016EE8BE05D03F0B42
:101F2000EA6E0900F5CFE9FF01BC090001AC090028
:101F3000F5CFEEFF004EE9D7F9D7F86A2AEF02F0A5
:101F40000FEF03F09D809D8AC00EF212216A1E9C45
:101F5000040004001EA010D0ABA202D0AB98AB8846
:101F60001EAC09D0212A2150040805E2AB981E9C22
:101F7000956B1E8A216A1E901EAA04D04CEF03F0B6
:101F8000AB881E9A1EA203D07CEF0BF01E921EA8F7
:101F900012D0222AD8B4232A2350010809E2FF0ACA
:101FA00003E12250580804E2050E1F6E236A226ADC
:0A1FB00095908C701E98CDD70300A9
:020000040030CA
:0E00000024CE2F1B008581000FC00FE00F40A3
:00000001FF
;PIC18F4550
;CRC=00F3  CREATED="30-May-26 17:18"
